{
  "contractName": "Ballot",
  "abi": [
    {
      "inputs": [],
      "payable": false,
      "stateMutability": "nonpayable",
      "type": "constructor"
    },
    {
      "constant": true,
      "inputs": [
        {
          "internalType": "uint256",
          "name": "",
          "type": "uint256"
        }
      ],
      "name": "events",
      "outputs": [
        {
          "internalType": "string",
          "name": "name",
          "type": "string"
        },
        {
          "internalType": "string",
          "name": "endTime",
          "type": "string"
        },
        {
          "internalType": "uint256",
          "name": "expectedVotes",
          "type": "uint256"
        },
        {
          "internalType": "uint256",
          "name": "totalVotes",
          "type": "uint256"
        }
      ],
      "payable": false,
      "stateMutability": "view",
      "type": "function"
    },
    {
      "constant": true,
      "inputs": [],
      "name": "owner",
      "outputs": [
        {
          "internalType": "address",
          "name": "",
          "type": "address"
        }
      ],
      "payable": false,
      "stateMutability": "view",
      "type": "function"
    },
    {
      "constant": false,
      "inputs": [
        {
          "internalType": "string",
          "name": "_name",
          "type": "string"
        },
        {
          "internalType": "string",
          "name": "_endTime",
          "type": "string"
        },
        {
          "internalType": "uint256",
          "name": "_expectedVotes",
          "type": "uint256"
        },
        {
          "internalType": "bytes32[]",
          "name": "_candidateNames",
          "type": "bytes32[]"
        },
        {
          "internalType": "uint256[]",
          "name": "_candidateIds",
          "type": "uint256[]"
        },
        {
          "internalType": "uint256",
          "name": "evenId",
          "type": "uint256"
        }
      ],
      "name": "createEvent",
      "outputs": [
        {
          "internalType": "bool",
          "name": "success",
          "type": "bool"
        }
      ],
      "payable": false,
      "stateMutability": "nonpayable",
      "type": "function"
    },
    {
      "constant": false,
      "inputs": [
        {
          "internalType": "uint256",
          "name": "_eventId",
          "type": "uint256"
        },
        {
          "internalType": "uint256[]",
          "name": "_candidateId",
          "type": "uint256[]"
        }
      ],
      "name": "approvalVoting",
      "outputs": [],
      "payable": false,
      "stateMutability": "nonpayable",
      "type": "function"
    },
    {
      "constant": false,
      "inputs": [
        {
          "internalType": "uint256",
          "name": "_eventId",
          "type": "uint256"
        },
        {
          "internalType": "uint256",
          "name": "_candidateId",
          "type": "uint256"
        }
      ],
      "name": "singleVoting",
      "outputs": [],
      "payable": false,
      "stateMutability": "nonpayable",
      "type": "function"
    },
    {
      "constant": true,
      "inputs": [],
      "name": "isOwner",
      "outputs": [
        {
          "internalType": "bool",
          "name": "",
          "type": "bool"
        }
      ],
      "payable": false,
      "stateMutability": "view",
      "type": "function"
    },
    {
      "constant": true,
      "inputs": [],
      "name": "showOwner",
      "outputs": [
        {
          "internalType": "address",
          "name": "",
          "type": "address"
        }
      ],
      "payable": false,
      "stateMutability": "view",
      "type": "function"
    }
  ],
  "bytecode": "0x608060405234801561001057600080fd5b50336000806101000a81548173ffffffffffffffffffffffffffffffffffffffff021916908373ffffffffffffffffffffffffffffffffffffffff160217905550611034806100606000396000f3fe608060405234801561001057600080fd5b506004361061007d5760003560e01c80638da5cb5b1161005b5780638da5cb5b1461029d5780638f32d59b146102e757806390ceb86514610309578063ded94688146105af5761007d565b80630b7914301461008257806379b9dd5c146101a35780638025169f146101db575b600080fd5b6100ae6004803603602081101561009857600080fd5b81019080803590602001909291905050506105f9565b604051808060200180602001858152602001848152602001838103835287818151815260200191508051906020019080838360005b838110156100fe5780820151818401526020810190506100e3565b50505050905090810190601f16801561012b5780820380516001836020036101000a031916815260200191505b50838103825286818151815260200191508051906020019080838360005b83811015610164578082015181840152602081019050610149565b50505050905090810190601f1680156101915780820380516001836020036101000a031916815260200191505b50965050505050505060405180910390f35b6101d9600480360360408110156101b957600080fd5b810190808035906020019092919080359060200190929190505050610766565b005b61029b600480360360408110156101f157600080fd5b81019080803590602001909291908035906020019064010000000081111561021857600080fd5b82018360208201111561022a57600080fd5b8035906020019184602083028401116401000000008311171561024c57600080fd5b919080806020026020016040519081016040528093929190818152602001838360200280828437600081840152601f19601f8201169050808301925050505050505091929192905050506109db565b005b6102a5610c80565b604051808273ffffffffffffffffffffffffffffffffffffffff1673ffffffffffffffffffffffffffffffffffffffff16815260200191505060405180910390f35b6102ef610ca5565b604051808215151515815260200191505060405180910390f35b610595600480360360c081101561031f57600080fd5b810190808035906020019064010000000081111561033c57600080fd5b82018360208201111561034e57600080fd5b8035906020019184600183028401116401000000008311171561037057600080fd5b91908080601f016020809104026020016040519081016040528093929190818152602001838380828437600081840152601f19601f820116905080830192505050505050509192919290803590602001906401000000008111156103d357600080fd5b8201836020820111156103e557600080fd5b8035906020019184600183028401116401000000008311171561040757600080fd5b91908080601f016020809104026020016040519081016040528093929190818152602001838380828437600081840152601f19601f820116905080830192505050505050509192919290803590602001909291908035906020019064010000000081111561047457600080fd5b82018360208201111561048657600080fd5b803590602001918460208302840111640100000000831117156104a857600080fd5b919080806020026020016040519081016040528093929190818152602001838360200280828437600081840152601f19601f8201169050808301925050505050505091929192908035906020019064010000000081111561050857600080fd5b82018360208201111561051a57600080fd5b8035906020019184602083028401116401000000008311171561053c57600080fd5b919080806020026020016040519081016040528093929190818152602001838360200280828437600081840152601f19601f82011690508083019250505050505050919291929080359060200190929190505050610cfc565b604051808215151515815260200191505060405180910390f35b6105b7610f0f565b604051808273ffffffffffffffffffffffffffffffffffffffff1673ffffffffffffffffffffffffffffffffffffffff16815260200191505060405180910390f35b6003818154811061060657fe5b9060005260206000209060040201600091509050806000018054600181600116156101000203166002900480601f0160208091040260200160405190810160405280929190818152602001828054600181600116156101000203166002900480156106b25780601f10610687576101008083540402835291602001916106b2565b820191906000526020600020905b81548152906001019060200180831161069557829003601f168201915b505050505090806001018054600181600116156101000203166002900480601f0160208091040260200160405190810160405280929190818152602001828054600181600116156101000203166002900480156107505780601f1061072557610100808354040283529160200191610750565b820191906000526020600020905b81548152906001019060200180831161073357829003601f168201915b5050505050908060020154908060030154905084565b6000600160003373ffffffffffffffffffffffffffffffffffffffff1673ffffffffffffffffffffffffffffffffffffffff1681526020019081526020016000206000015414156108375760405180604001604052806001815260200160001515815250600160003373ffffffffffffffffffffffffffffffffffffffff1673ffffffffffffffffffffffffffffffffffffffff1681526020019081526020016000206000820151816000015560208201518160010160006101000a81548160ff0219169083151502179055509050505b6000600160003373ffffffffffffffffffffffffffffffffffffffff1673ffffffffffffffffffffffffffffffffffffffff16815260200190815260200160002090508060010160009054906101000a900460ff16156108ff576040517f08c379a000000000000000000000000000000000000000000000000000000000815260040180806020018281038252600d8152602001807f416c726561647920766f7465640000000000000000000000000000000000000081525060200191505060405180910390fd5b60018160010160006101000a81548160ff02191690831515021790555060016003848154811061092b57fe5b9060005260206000209060040201600301600082825401925050819055503373ffffffffffffffffffffffffffffffffffffffff166108fc6706f05b59d3b200009081150290604051600060405180830381858888f19350505050158015610997573d6000803e3d6000fd5b5060016002600085815260200190815260200160002083815481106109b857fe5b906000526020600020906003020160020160008282540192505081905550505050565b6000600160003373ffffffffffffffffffffffffffffffffffffffff1673ffffffffffffffffffffffffffffffffffffffff168152602001908152602001600020600001541415610aac5760405180604001604052806001815260200160001515815250600160003373ffffffffffffffffffffffffffffffffffffffff1673ffffffffffffffffffffffffffffffffffffffff1681526020019081526020016000206000820151816000015560208201518160010160006101000a81548160ff0219169083151502179055509050505b6000600160003373ffffffffffffffffffffffffffffffffffffffff1673ffffffffffffffffffffffffffffffffffffffff16815260200190815260200160002090508060010160009054906101000a900460ff1615610b74576040517f08c379a000000000000000000000000000000000000000000000000000000000815260040180806020018281038252600d8152602001807f416c726561647920766f7465640000000000000000000000000000000000000081525060200191505060405180910390fd5b60018160010160006101000a81548160ff021916908315150217905550600160038481548110610ba057fe5b90600052602060002090600402016003016000828254019250508190555060008090505b8251811015610c7a573373ffffffffffffffffffffffffffffffffffffffff166108fc6706f05b59d3b200009081150290604051600060405180830381858888f19350505050158015610c1b573d6000803e3d6000fd5b50600160026000868152602001908152602001600020848381518110610c3d57fe5b602002602001015181548110610c4f57fe5b9060005260206000209060030201600201600082825401925050819055508080600101915050610bc4565b50505050565b6000809054906101000a900473ffffffffffffffffffffffffffffffffffffffff1681565b60008060009054906101000a900473ffffffffffffffffffffffffffffffffffffffff1673ffffffffffffffffffffffffffffffffffffffff163373ffffffffffffffffffffffffffffffffffffffff1614905090565b60008060009054906101000a900473ffffffffffffffffffffffffffffffffffffffff1673ffffffffffffffffffffffffffffffffffffffff163373ffffffffffffffffffffffffffffffffffffffff1614610da3576040517f08c379a0000000000000000000000000000000000000000000000000000000008152600401808060200182810382526022815260200180610fde6022913960400191505060405180910390fd5b600360405180608001604052808981526020018881526020018781526020016000815250908060018154018082558091505090600182039060005260206000209060040201600090919290919091506000820151816000019080519060200190610e0e929190610f38565b506020820151816001019080519060200190610e2b929190610f38565b50604082015181600201556060820151816003015550505060008090505b8451811015610f0057600260008481526020019081526020016000206040518060600160405280878481518110610e7c57fe5b60200260200101518152602001868481518110610e9557fe5b602002602001015181526020016000815250908060018154018082558091505090600182039060005260206000209060030201600090919290919091506000820151816000015560208201518160010155604082015181600201555050508080600101915050610e49565b50600190509695505050505050565b60008060009054906101000a900473ffffffffffffffffffffffffffffffffffffffff16905090565b828054600181600116156101000203166002900490600052602060002090601f016020900481019282601f10610f7957805160ff1916838001178555610fa7565b82800160010185558215610fa7579182015b82811115610fa6578251825591602001919060010190610f8b565b5b509050610fb49190610fb8565b5090565b610fda91905b80821115610fd6576000816000905550600101610fbe565b5090565b9056fe4f6e6c7920746865206f776e65722063616e2063726561746520616e206576656e74a265627a7a72315820b8c18ee6dad28d559b5c879d85ada8f4233c6967653b1172a9c03c0fd602568864736f6c63430005110032",
  "source": "pragma solidity ^0.5.0;\r\n\r\n// contract for voting in a ballot\r\ncontract Ballot{\r\n    address public owner;\r\n    struct Voter{\r\n        uint weight;\r\n        bool voted;\r\n    }\r\n    // struct for a proposal\r\n    struct Candidate{\r\n        bytes32 name;\r\n        uint id;\r\n        uint voteCount;\r\n    }\r\n\r\n    struct Event{\r\n        string name;\r\n        string endTime;\r\n        uint expectedVotes;\r\n        uint totalVotes;\r\n    }\r\n\r\n    // mapping of voters\r\n    mapping(address => Voter) voters;\r\n\r\n    // array of proposals\r\n    mapping(uint => Candidate []) listCandidates;\r\n\r\n    constructor() public{\r\n        owner = msg.sender;\r\n    }\r\n\r\n    Event[] public events;\r\n\r\n    // create voting event\r\n    function createEvent(string memory _name, string memory _endTime, uint _expectedVotes, bytes32[] memory _candidateNames, uint[] memory _candidateIds, uint evenId) public returns(bool success){\r\n        require(msg.sender == owner, \"Only the owner can create an event\");\r\n        events.push(Event({\r\n            name: _name,\r\n            endTime: _endTime,\r\n            expectedVotes: _expectedVotes,\r\n            totalVotes: 0\r\n        }));\r\n\r\n        // create candidates and map them to the event\r\n        for(uint i = 0; i < _candidateNames.length; i++){\r\n            listCandidates[evenId].push(Candidate({\r\n                name: _candidateNames[i],\r\n                id: _candidateIds[i],\r\n                voteCount: 0\r\n            }));\r\n        }\r\n\r\n        return true;\r\n    }\r\n\r\n    // vote for a candidate\r\n    function approvalVoting(uint _eventId, uint [] memory _candidateId) public{\r\n        if(voters[msg.sender].weight == 0){\r\n            voters[msg.sender] = Voter({\r\n                weight: 1,\r\n                voted: false\r\n            });\r\n        }\r\n        Voter storage sender = voters[msg.sender];\r\n        require(!sender.voted, \"Already voted\");\r\n        sender.voted = true;\r\n        events[_eventId].totalVotes += 1;\r\n        for(uint i = 0; i < _candidateId.length; i++){\r\n            msg.sender.transfer(0.5 ether);\r\n            listCandidates[_eventId][_candidateId[i]].voteCount += 1;\r\n        }\r\n    }\r\n\r\n    function singleVoting(uint _eventId, uint _candidateId) public{\r\n        if(voters[msg.sender].weight == 0){\r\n            voters[msg.sender] = Voter({\r\n                weight: 1,\r\n                voted: false\r\n            });\r\n        }\r\n        Voter storage sender = voters[msg.sender];\r\n        require(!sender.voted, \"Already voted\");\r\n        sender.voted = true;\r\n        events[_eventId].totalVotes += 1;\r\n        msg.sender.transfer(0.5 ether);\r\n        listCandidates[_eventId][_candidateId].voteCount += 1;\r\n    }\r\n\r\n    function isOwner () public view returns(bool){\r\n        return msg.sender == owner;\r\n    }\r\n\r\n    function showOwner () public view returns(address){\r\n        return owner;\r\n    }\r\n\r\n\r\n}",
  "sourcePath": "C:\\Trinity Hackathon\\trinity\\src\\contracts\\ballot.sol",
  "compiler": {
    "name": "solc",
    "version": "0.5.17+commit.d19bba13.Emscripten.clang"
  },
  "schemaVersion": "3.4.13",
  "updatedAt": "2023-03-04T18:51:58.006Z",
  "networkType": "ethereum",
  "devdoc": {
    "methods": {}
  },
  "userdoc": {
    "methods": {}
  }
}