{
  "contractName": "Ballot",
  "abi": [
    {
      "inputs": [],
      "payable": false,
      "stateMutability": "nonpayable",
      "type": "constructor"
    },
    {
      "anonymous": false,
      "inputs": [
        {
          "indexed": false,
          "internalType": "string",
          "name": "name",
          "type": "string"
        },
        {
          "indexed": false,
          "internalType": "string",
          "name": "endTime",
          "type": "string"
        },
        {
          "indexed": false,
          "internalType": "string",
          "name": "typ",
          "type": "string"
        },
        {
          "indexed": false,
          "internalType": "string",
          "name": "desc",
          "type": "string"
        },
        {
          "indexed": false,
          "internalType": "string",
          "name": "organiser",
          "type": "string"
        },
        {
          "indexed": false,
          "internalType": "uint256",
          "name": "expectedVotes",
          "type": "uint256"
        },
        {
          "indexed": false,
          "internalType": "uint256",
          "name": "totalVotes",
          "type": "uint256"
        },
        {
          "indexed": false,
          "internalType": "uint256",
          "name": "eventId",
          "type": "uint256"
        }
      ],
      "name": "EventCreated",
      "type": "event"
    },
    {
      "anonymous": false,
      "inputs": [
        {
          "indexed": false,
          "internalType": "uint256",
          "name": "eventId",
          "type": "uint256"
        },
        {
          "indexed": false,
          "internalType": "uint256",
          "name": "candidateId",
          "type": "uint256"
        },
        {
          "indexed": false,
          "internalType": "uint256",
          "name": "voteCount",
          "type": "uint256"
        },
        {
          "indexed": false,
          "internalType": "uint256",
          "name": "totalVotes",
          "type": "uint256"
        }
      ],
      "name": "voteCasted",
      "type": "event"
    },
    {
      "anonymous": false,
      "inputs": [
        {
          "indexed": false,
          "internalType": "string",
          "name": "eventName",
          "type": "string"
        },
        {
          "indexed": false,
          "internalType": "bytes32",
          "name": "name",
          "type": "bytes32"
        },
        {
          "indexed": false,
          "internalType": "uint256",
          "name": "voteCount",
          "type": "uint256"
        }
      ],
      "name": "winner",
      "type": "event"
    },
    {
      "constant": true,
      "inputs": [
        {
          "internalType": "uint256",
          "name": "",
          "type": "uint256"
        }
      ],
      "name": "events",
      "outputs": [
        {
          "internalType": "string",
          "name": "name",
          "type": "string"
        },
        {
          "internalType": "string",
          "name": "endTime",
          "type": "string"
        },
        {
          "internalType": "string",
          "name": "typ",
          "type": "string"
        },
        {
          "internalType": "string",
          "name": "desc",
          "type": "string"
        },
        {
          "internalType": "string",
          "name": "organiser",
          "type": "string"
        },
        {
          "internalType": "uint256",
          "name": "expectedVotes",
          "type": "uint256"
        },
        {
          "internalType": "uint256",
          "name": "totalVotes",
          "type": "uint256"
        },
        {
          "internalType": "uint256",
          "name": "eventId",
          "type": "uint256"
        },
        {
          "internalType": "bool",
          "name": "isAlive",
          "type": "bool"
        }
      ],
      "payable": false,
      "stateMutability": "view",
      "type": "function"
    },
    {
      "constant": true,
      "inputs": [],
      "name": "owner",
      "outputs": [
        {
          "internalType": "address",
          "name": "",
          "type": "address"
        }
      ],
      "payable": false,
      "stateMutability": "view",
      "type": "function"
    },
    {
      "constant": false,
      "inputs": [
        {
          "internalType": "string",
          "name": "_name",
          "type": "string"
        },
        {
          "internalType": "string",
          "name": "desc",
          "type": "string"
        },
        {
          "internalType": "string",
          "name": "organiser",
          "type": "string"
        },
        {
          "internalType": "string",
          "name": "_endTime",
          "type": "string"
        },
        {
          "internalType": "uint256",
          "name": "_expectedVotes",
          "type": "uint256"
        },
        {
          "internalType": "bytes32[]",
          "name": "_candidateNames",
          "type": "bytes32[]"
        },
        {
          "internalType": "uint256[]",
          "name": "_candidateIds",
          "type": "uint256[]"
        },
        {
          "internalType": "uint256",
          "name": "evenId",
          "type": "uint256"
        },
        {
          "internalType": "string",
          "name": "typ",
          "type": "string"
        }
      ],
      "name": "createEvent",
      "outputs": [
        {
          "internalType": "bool",
          "name": "success",
          "type": "bool"
        }
      ],
      "payable": false,
      "stateMutability": "nonpayable",
      "type": "function"
    },
    {
      "constant": true,
      "inputs": [],
      "name": "getEvents",
      "outputs": [
        {
          "components": [
            {
              "internalType": "string",
              "name": "name",
              "type": "string"
            },
            {
              "internalType": "string",
              "name": "endTime",
              "type": "string"
            },
            {
              "internalType": "string",
              "name": "typ",
              "type": "string"
            },
            {
              "internalType": "string",
              "name": "desc",
              "type": "string"
            },
            {
              "internalType": "string",
              "name": "organiser",
              "type": "string"
            },
            {
              "internalType": "uint256",
              "name": "expectedVotes",
              "type": "uint256"
            },
            {
              "internalType": "uint256",
              "name": "totalVotes",
              "type": "uint256"
            },
            {
              "internalType": "uint256",
              "name": "eventId",
              "type": "uint256"
            },
            {
              "internalType": "bool",
              "name": "isAlive",
              "type": "bool"
            }
          ],
          "internalType": "struct Ballot.Event[]",
          "name": "",
          "type": "tuple[]"
        }
      ],
      "payable": false,
      "stateMutability": "view",
      "type": "function"
    },
    {
      "constant": true,
      "inputs": [
        {
          "internalType": "uint256",
          "name": "_eventId",
          "type": "uint256"
        }
      ],
      "name": "getEventById",
      "outputs": [
        {
          "components": [
            {
              "internalType": "string",
              "name": "name",
              "type": "string"
            },
            {
              "internalType": "string",
              "name": "endTime",
              "type": "string"
            },
            {
              "internalType": "string",
              "name": "typ",
              "type": "string"
            },
            {
              "internalType": "string",
              "name": "desc",
              "type": "string"
            },
            {
              "internalType": "string",
              "name": "organiser",
              "type": "string"
            },
            {
              "internalType": "uint256",
              "name": "expectedVotes",
              "type": "uint256"
            },
            {
              "internalType": "uint256",
              "name": "totalVotes",
              "type": "uint256"
            },
            {
              "internalType": "uint256",
              "name": "eventId",
              "type": "uint256"
            },
            {
              "internalType": "bool",
              "name": "isAlive",
              "type": "bool"
            }
          ],
          "internalType": "struct Ballot.Event",
          "name": "",
          "type": "tuple"
        }
      ],
      "payable": false,
      "stateMutability": "view",
      "type": "function"
    },
    {
      "constant": true,
      "inputs": [],
      "name": "getEventLength",
      "outputs": [
        {
          "internalType": "uint256",
          "name": "",
          "type": "uint256"
        }
      ],
      "payable": false,
      "stateMutability": "view",
      "type": "function"
    },
    {
      "constant": true,
      "inputs": [
        {
          "internalType": "uint256",
          "name": "index",
          "type": "uint256"
        }
      ],
      "name": "getEventByIndex",
      "outputs": [
        {
          "components": [
            {
              "internalType": "string",
              "name": "name",
              "type": "string"
            },
            {
              "internalType": "string",
              "name": "endTime",
              "type": "string"
            },
            {
              "internalType": "string",
              "name": "typ",
              "type": "string"
            },
            {
              "internalType": "string",
              "name": "desc",
              "type": "string"
            },
            {
              "internalType": "string",
              "name": "organiser",
              "type": "string"
            },
            {
              "internalType": "uint256",
              "name": "expectedVotes",
              "type": "uint256"
            },
            {
              "internalType": "uint256",
              "name": "totalVotes",
              "type": "uint256"
            },
            {
              "internalType": "uint256",
              "name": "eventId",
              "type": "uint256"
            },
            {
              "internalType": "bool",
              "name": "isAlive",
              "type": "bool"
            }
          ],
          "internalType": "struct Ballot.Event",
          "name": "",
          "type": "tuple"
        }
      ],
      "payable": false,
      "stateMutability": "view",
      "type": "function"
    },
    {
      "constant": true,
      "inputs": [
        {
          "internalType": "uint256",
          "name": "_eventId",
          "type": "uint256"
        }
      ],
      "name": "getCandidatesLength",
      "outputs": [
        {
          "internalType": "uint256",
          "name": "",
          "type": "uint256"
        }
      ],
      "payable": false,
      "stateMutability": "view",
      "type": "function"
    },
    {
      "constant": true,
      "inputs": [
        {
          "internalType": "uint256",
          "name": "_eventId",
          "type": "uint256"
        },
        {
          "internalType": "uint256",
          "name": "index",
          "type": "uint256"
        }
      ],
      "name": "getCandidate",
      "outputs": [
        {
          "components": [
            {
              "internalType": "bytes32",
              "name": "name",
              "type": "bytes32"
            },
            {
              "internalType": "uint256",
              "name": "id",
              "type": "uint256"
            },
            {
              "internalType": "uint256",
              "name": "voteCount",
              "type": "uint256"
            }
          ],
          "internalType": "struct Ballot.Candidate",
          "name": "",
          "type": "tuple"
        }
      ],
      "payable": false,
      "stateMutability": "view",
      "type": "function"
    },
    {
      "constant": false,
      "inputs": [
        {
          "internalType": "uint256",
          "name": "_eventId",
          "type": "uint256"
        },
        {
          "internalType": "uint256[]",
          "name": "_candidateId",
          "type": "uint256[]"
        }
      ],
      "name": "approvalVoting",
      "outputs": [],
      "payable": false,
      "stateMutability": "nonpayable",
      "type": "function"
    },
    {
      "constant": false,
      "inputs": [
        {
          "internalType": "uint256",
          "name": "_eventId",
          "type": "uint256"
        },
        {
          "internalType": "uint256",
          "name": "_candidateId",
          "type": "uint256"
        }
      ],
      "name": "singleVoting",
      "outputs": [],
      "payable": false,
      "stateMutability": "nonpayable",
      "type": "function"
    },
    {
      "constant": true,
      "inputs": [
        {
          "internalType": "address",
          "name": "_voter",
          "type": "address"
        },
        {
          "internalType": "uint256",
          "name": "_eventId",
          "type": "uint256"
        }
      ],
      "name": "isAllowedToVote",
      "outputs": [
        {
          "internalType": "bool",
          "name": "",
          "type": "bool"
        }
      ],
      "payable": false,
      "stateMutability": "view",
      "type": "function"
    },
    {
      "constant": true,
      "inputs": [],
      "name": "isOwner",
      "outputs": [
        {
          "internalType": "bool",
          "name": "",
          "type": "bool"
        }
      ],
      "payable": false,
      "stateMutability": "view",
      "type": "function"
    },
    {
      "constant": true,
      "inputs": [],
      "name": "showOwner",
      "outputs": [
        {
          "internalType": "address",
          "name": "",
          "type": "address"
        }
      ],
      "payable": false,
      "stateMutability": "view",
      "type": "function"
    },
    {
      "constant": false,
      "inputs": [
        {
          "internalType": "uint256",
          "name": "_eventId",
          "type": "uint256"
        }
      ],
      "name": "endAndDeclareWinner",
      "outputs": [
        {
          "internalType": "bytes32",
          "name": "",
          "type": "bytes32"
        }
      ],
      "payable": false,
      "stateMutability": "nonpayable",
      "type": "function"
    }
  ],
  "bytecode": "0x608060405234801561001057600080fd5b50336000806101000a81548173ffffffffffffffffffffffffffffffffffffffff021916908373ffffffffffffffffffffffffffffffffffffffff160217905550613170806100606000396000f3fe608060405234801561001057600080fd5b50600436106100f55760003560e01c80638da5cb5b11610097578063bee24ec811610066578063bee24ec8146102a2578063d41808ed146102d2578063d4a164dd14610302578063ded9468814610332576100f5565b80638da5cb5b146102065780638f32d59b146102245780639b6b6d3e14610242578063b98079bc14610272576100f5565b80635c98dfa1116100d35780635c98dfa11461018057806374c638151461019e57806379b9dd5c146101ce5780638025169f146101ea576100f5565b80630b791430146100fa578063404aa8f9146101325780634bd4644814610150575b600080fd5b610114600480360361010f91908101906125ff565b610350565b60405161012999989796959493929190612d17565b60405180910390f35b61013a6106b0565b6040516101479190612c1e565b60405180910390f35b61016a6004803603610165919081019061267c565b610a73565b6040516101779190612e65565b60405180910390f35b610188610ad8565b6040516101959190612ea2565b60405180910390f35b6101b860048036036101b391908101906125ff565b610ae5565b6040516101c59190612ea2565b60405180910390f35b6101e860048036036101e3919081019061267c565b610b05565b005b61020460048036036101ff9190810190612628565b610f2e565b005b61020e6112fd565b60405161021b9190612c03565b60405180910390f35b61022c611322565b6040516102399190612c40565b60405180910390f35b61025c600480360361025791908101906125ff565b611379565b6040516102699190612e80565b60405180910390f35b61028c600480360361028791908101906125ff565b611712565b6040516102999190612e80565b60405180910390f35b6102bc60048036036102b79190810190612455565b611aff565b6040516102c99190612c40565b60405180910390f35b6102ec60048036036102e79190810190612491565b611b5f565b6040516102f99190612c40565b60405180910390f35b61031c600480360361031791908101906125ff565b611e49565b6040516103299190612c5b565b60405180910390f35b61033a6120f5565b6040516103479190612c03565b60405180910390f35b6004818154811061035d57fe5b9060005260206000209060090201600091509050806000018054600181600116156101000203166002900480601f0160208091040260200160405190810160405280929190818152602001828054600181600116156101000203166002900480156104095780601f106103de57610100808354040283529160200191610409565b820191906000526020600020905b8154815290600101906020018083116103ec57829003601f168201915b505050505090806001018054600181600116156101000203166002900480601f0160208091040260200160405190810160405280929190818152602001828054600181600116156101000203166002900480156104a75780601f1061047c576101008083540402835291602001916104a7565b820191906000526020600020905b81548152906001019060200180831161048a57829003601f168201915b505050505090806002018054600181600116156101000203166002900480601f0160208091040260200160405190810160405280929190818152602001828054600181600116156101000203166002900480156105455780601f1061051a57610100808354040283529160200191610545565b820191906000526020600020905b81548152906001019060200180831161052857829003601f168201915b505050505090806003018054600181600116156101000203166002900480601f0160208091040260200160405190810160405280929190818152602001828054600181600116156101000203166002900480156105e35780601f106105b8576101008083540402835291602001916105e3565b820191906000526020600020905b8154815290600101906020018083116105c657829003601f168201915b505050505090806004018054600181600116156101000203166002900480601f0160208091040260200160405190810160405280929190818152602001828054600181600116156101000203166002900480156106815780601f1061065657610100808354040283529160200191610681565b820191906000526020600020905b81548152906001019060200180831161066457829003601f168201915b5050505050908060050154908060060154908060070154908060080160009054906101000a900460ff16905089565b60606004805480602002602001604051908101604052809291908181526020016000905b82821015610a6a578382906000526020600020906009020160405180610120016040529081600082018054600181600116156101000203166002900480601f0160208091040260200160405190810160405280929190818152602001828054600181600116156101000203166002900480156107915780601f1061076657610100808354040283529160200191610791565b820191906000526020600020905b81548152906001019060200180831161077457829003601f168201915b50505050508152602001600182018054600181600116156101000203166002900480601f0160208091040260200160405190810160405280929190818152602001828054600181600116156101000203166002900480156108335780601f1061080857610100808354040283529160200191610833565b820191906000526020600020905b81548152906001019060200180831161081657829003601f168201915b50505050508152602001600282018054600181600116156101000203166002900480601f0160208091040260200160405190810160405280929190818152602001828054600181600116156101000203166002900480156108d55780601f106108aa576101008083540402835291602001916108d5565b820191906000526020600020905b8154815290600101906020018083116108b857829003601f168201915b50505050508152602001600382018054600181600116156101000203166002900480601f0160208091040260200160405190810160405280929190818152602001828054600181600116156101000203166002900480156109775780601f1061094c57610100808354040283529160200191610977565b820191906000526020600020905b81548152906001019060200180831161095a57829003601f168201915b50505050508152602001600482018054600181600116156101000203166002900480601f016020809104026020016040519081016040528092919081815260200182805460018160011615610100020316600290048015610a195780601f106109ee57610100808354040283529160200191610a19565b820191906000526020600020905b8154815290600101906020018083116109fc57829003601f168201915b505050505081526020016005820154815260200160068201548152602001600782015481526020016008820160009054906101000a900460ff161515151581525050815260200190600101906106d4565b50505050905090565b610a7b61211e565b600360008481526020019081526020016000208281548110610a9957fe5b90600052602060002090600302016040518060600160405290816000820154815260200160018201548152602001600282015481525050905092915050565b6000600480549050905090565b600060036000838152602001908152602001600020805490509050919050565b6000600160003373ffffffffffffffffffffffffffffffffffffffff1673ffffffffffffffffffffffffffffffffffffffff168152602001908152602001600020600001541415610bad5760405180602001604052806001815250600160003373ffffffffffffffffffffffffffffffffffffffff1673ffffffffffffffffffffffffffffffffffffffff168152602001908152602001600020600082015181600001559050505b81600260003373ffffffffffffffffffffffffffffffffffffffff1673ffffffffffffffffffffffffffffffffffffffff168152602001908152602001600020600701541415610c32576040517f08c379a0000000000000000000000000000000000000000000000000000000008152600401610c2990612e45565b60405180910390fd5b6000600160003373ffffffffffffffffffffffffffffffffffffffff1673ffffffffffffffffffffffffffffffffffffffff1681526020019081526020016000209050600160048481548110610c8457fe5b9060005260206000209060090201600601600082825401925050819055503373ffffffffffffffffffffffffffffffffffffffff166108fc6706f05b59d3b200009081150290604051600060405180830381858888f19350505050158015610cf0573d6000803e3d6000fd5b506001600360008581526020019081526020016000208381548110610d1157fe5b9060005260206000209060030201600201600082825401925050819055507f16359201c8364e7645a6a05c0540a23f7fe46694751ab261e345ed52e4f9778d8383600360008781526020019081526020016000208581548110610d7057fe5b90600052602060002090600302016002015460048781548110610d8f57fe5b906000526020600020906009020160060154604051610db19493929190612ebd565b60405180910390a160048381548110610dc657fe5b9060005260206000209060090201600260003373ffffffffffffffffffffffffffffffffffffffff1673ffffffffffffffffffffffffffffffffffffffff16815260200190815260200160002060008201816000019080546001816001161561010002031660029004610e3a929190612142565b5060018201816001019080546001816001161561010002031660029004610e62929190612142565b5060028201816002019080546001816001161561010002031660029004610e8a929190612142565b5060038201816003019080546001816001161561010002031660029004610eb2929190612142565b5060048201816004019080546001816001161561010002031660029004610eda929190612142565b506005820154816005015560068201548160060155600782015481600701556008820160009054906101000a900460ff168160080160006101000a81548160ff021916908315150217905550905050505050565b6000600160003373ffffffffffffffffffffffffffffffffffffffff1673ffffffffffffffffffffffffffffffffffffffff168152602001908152602001600020600001541415610fd65760405180602001604052806001815250600160003373ffffffffffffffffffffffffffffffffffffffff1673ffffffffffffffffffffffffffffffffffffffff168152602001908152602001600020600082015181600001559050505b81600260003373ffffffffffffffffffffffffffffffffffffffff1673ffffffffffffffffffffffffffffffffffffffff16815260200190815260200160002060070154141561105b576040517f08c379a000000000000000000000000000000000000000000000000000000000815260040161105290612e45565b60405180910390fd5b6000600160003373ffffffffffffffffffffffffffffffffffffffff1673ffffffffffffffffffffffffffffffffffffffff16815260200190815260200160002090506001600484815481106110ad57fe5b90600052602060002090600902016006016000828254019250508190555060008090505b8251811015611187573373ffffffffffffffffffffffffffffffffffffffff166108fc6706f05b59d3b200009081150290604051600060405180830381858888f19350505050158015611128573d6000803e3d6000fd5b5060016003600086815260200190815260200160002084838151811061114a57fe5b60200260200101518154811061115c57fe5b90600052602060002090600302016002016000828254019250508190555080806001019150506110d1565b506004838154811061119557fe5b9060005260206000209060090201600260003373ffffffffffffffffffffffffffffffffffffffff1673ffffffffffffffffffffffffffffffffffffffff16815260200190815260200160002060008201816000019080546001816001161561010002031660029004611209929190612142565b5060018201816001019080546001816001161561010002031660029004611231929190612142565b5060028201816002019080546001816001161561010002031660029004611259929190612142565b5060038201816003019080546001816001161561010002031660029004611281929190612142565b50600482018160040190805460018160011615610100020316600290046112a9929190612142565b506005820154816005015560068201548160060155600782015481600701556008820160009054906101000a900460ff168160080160006101000a81548160ff021916908315150217905550905050505050565b6000809054906101000a900473ffffffffffffffffffffffffffffffffffffffff1681565b60008060009054906101000a900473ffffffffffffffffffffffffffffffffffffffff1673ffffffffffffffffffffffffffffffffffffffff163373ffffffffffffffffffffffffffffffffffffffff1614905090565b6113816121c9565b6004828154811061138e57fe5b906000526020600020906009020160405180610120016040529081600082018054600181600116156101000203166002900480601f0160208091040260200160405190810160405280929190818152602001828054600181600116156101000203166002900480156114415780601f1061141657610100808354040283529160200191611441565b820191906000526020600020905b81548152906001019060200180831161142457829003601f168201915b50505050508152602001600182018054600181600116156101000203166002900480601f0160208091040260200160405190810160405280929190818152602001828054600181600116156101000203166002900480156114e35780601f106114b8576101008083540402835291602001916114e3565b820191906000526020600020905b8154815290600101906020018083116114c657829003601f168201915b50505050508152602001600282018054600181600116156101000203166002900480601f0160208091040260200160405190810160405280929190818152602001828054600181600116156101000203166002900480156115855780601f1061155a57610100808354040283529160200191611585565b820191906000526020600020905b81548152906001019060200180831161156857829003601f168201915b50505050508152602001600382018054600181600116156101000203166002900480601f0160208091040260200160405190810160405280929190818152602001828054600181600116156101000203166002900480156116275780601f106115fc57610100808354040283529160200191611627565b820191906000526020600020905b81548152906001019060200180831161160a57829003601f168201915b50505050508152602001600482018054600181600116156101000203166002900480601f0160208091040260200160405190810160405280929190818152602001828054600181600116156101000203166002900480156116c95780601f1061169e576101008083540402835291602001916116c9565b820191906000526020600020905b8154815290600101906020018083116116ac57829003601f168201915b505050505081526020016005820154815260200160068201548152602001600782015481526020016008820160009054906101000a900460ff1615151515815250509050919050565b61171a6121c9565b6117226121c9565b60008090505b600480549050811015611af557836004828154811061174357fe5b9060005260206000209060090201600701541415611ae8576004818154811061176857fe5b906000526020600020906009020160405180610120016040529081600082018054600181600116156101000203166002900480601f01602080910402602001604051908101604052809291908181526020018280546001816001161561010002031660029004801561181b5780601f106117f05761010080835404028352916020019161181b565b820191906000526020600020905b8154815290600101906020018083116117fe57829003601f168201915b50505050508152602001600182018054600181600116156101000203166002900480601f0160208091040260200160405190810160405280929190818152602001828054600181600116156101000203166002900480156118bd5780601f10611892576101008083540402835291602001916118bd565b820191906000526020600020905b8154815290600101906020018083116118a057829003601f168201915b50505050508152602001600282018054600181600116156101000203166002900480601f01602080910402602001604051908101604052809291908181526020018280546001816001161561010002031660029004801561195f5780601f106119345761010080835404028352916020019161195f565b820191906000526020600020905b81548152906001019060200180831161194257829003601f168201915b50505050508152602001600382018054600181600116156101000203166002900480601f016020809104026020016040519081016040528092919081815260200182805460018160011615610100020316600290048015611a015780601f106119d657610100808354040283529160200191611a01565b820191906000526020600020905b8154815290600101906020018083116119e457829003601f168201915b50505050508152602001600482018054600181600116156101000203166002900480601f016020809104026020016040519081016040528092919081815260200182805460018160011615610100020316600290048015611aa35780601f10611a7857610100808354040283529160200191611aa3565b820191906000526020600020905b815481529060010190602001808311611a8657829003601f168201915b505050505081526020016005820154815260200160068201548152602001600782015481526020016008820160009054906101000a900460ff16151515158152505091505b8080600101915050611728565b5080915050919050565b600081600260008573ffffffffffffffffffffffffffffffffffffffff1673ffffffffffffffffffffffffffffffffffffffff168152602001908152602001600020600701541415611b545760009050611b59565b600190505b92915050565b60008060009054906101000a900473ffffffffffffffffffffffffffffffffffffffff1673ffffffffffffffffffffffffffffffffffffffff163373ffffffffffffffffffffffffffffffffffffffff1614611bf0576040517f08c379a0000000000000000000000000000000000000000000000000000000008152600401611be790612e25565b60405180910390fd5b60046040518061012001604052808c81526020018981526020018481526020018b81526020018a81526020018881526020016000815260200185815260200160011515815250908060018154018082558091505090600182039060005260206000209060090201600090919290919091506000820151816000019080519060200190611c7d929190612217565b506020820151816001019080519060200190611c9a929190612217565b506040820151816002019080519060200190611cb7929190612217565b506060820151816003019080519060200190611cd4929190612217565b506080820151816004019080519060200190611cf1929190612217565b5060a0820151816005015560c0820151816006015560e082015181600701556101008201518160080160006101000a81548160ff0219169083151502179055505050507fd9b5d68aea5a1a58bded9ebb3567dd3633dc56d79484a4daf5744a611f67fd078a88848c8c8b60008a604051611d72989796959493929190612c76565b60405180910390a160008090505b8551811015611e3757600360008581526020019081526020016000206040518060600160405280888481518110611db357fe5b60200260200101518152602001878481518110611dcc57fe5b602002602001015181526020016000815250908060018154018082558091505090600182039060005260206000209060030201600090919290919091506000820151816000015560208201518160010155604082015181600201555050508080600101915050611d80565b50600190509998505050505050505050565b60008060009054906101000a900473ffffffffffffffffffffffffffffffffffffffff1673ffffffffffffffffffffffffffffffffffffffff163373ffffffffffffffffffffffffffffffffffffffff1614611eda576040517f08c379a0000000000000000000000000000000000000000000000000000000008152600401611ed190612e05565b60405180910390fd5b6000809050600080905060008090505b6003600086815260200190815260200160002080549050811015611f825782600360008781526020019081526020016000208281548110611f2757fe5b9060005260206000209060030201600201541115611f7557600360008681526020019081526020016000208181548110611f5d57fe5b90600052602060002090600302016002015492508091505b8080600101915050611eea565b5060008090505b600480549050811015612005578460048281548110611fa457fe5b9060005260206000209060090201600701541415611ff857600060048281548110611fcb57fe5b906000526020600020906009020160080160006101000a81548160ff021916908315150217905550612005565b8080600101915050611f89565b7ff2b379cbe8ef6d4755c18ab39675ef25657bbae289a328a19ef7ba14131690026004828154811061203357fe5b906000526020600020906009020160000160036000888152602001908152602001600020848154811061206257fe5b90600052602060002090600302016000015460036000898152602001908152602001600020858154811061209257fe5b9060005260206000209060030201600201546040516120b393929190612dc7565b60405180910390a16003600086815260200190815260200160002082815481106120d957fe5b9060005260206000209060030201600001549350505050919050565b60008060009054906101000a900473ffffffffffffffffffffffffffffffffffffffff16905090565b60405180606001604052806000801916815260200160008152602001600081525090565b828054600181600116156101000203166002900490600052602060002090601f016020900481019282601f1061217b57805485556121b8565b828001600101855582156121b857600052602060002091601f016020900482015b828111156121b757825482559160010191906001019061219c565b5b5090506121c59190612297565b5090565b60405180610120016040528060608152602001606081526020016060815260200160608152602001606081526020016000815260200160008152602001600081526020016000151581525090565b828054600181600116156101000203166002900490600052602060002090601f016020900481019282601f1061225857805160ff1916838001178555612286565b82800160010185558215612286579182015b8281111561228557825182559160200191906001019061226a565b5b5090506122939190612297565b5090565b6122b991905b808211156122b557600081600090555060010161229d565b5090565b90565b6000813590506122cb816130e8565b92915050565b600082601f8301126122e257600080fd5b81356122f56122f082612f2f565b612f02565b9150818183526020840193506020810190508385602084028201111561231a57600080fd5b60005b8381101561234a578161233088826123d7565b84526020840193506020830192505060018101905061231d565b5050505092915050565b600082601f83011261236557600080fd5b813561237861237382612f57565b612f02565b9150818183526020840193506020810190508385602084028201111561239d57600080fd5b60005b838110156123cd57816123b38882612440565b8452602084019350602083019250506001810190506123a0565b5050505092915050565b6000813590506123e6816130ff565b92915050565b600082601f8301126123fd57600080fd5b813561241061240b82612f7f565b612f02565b9150808252602083016020830185838301111561242c57600080fd5b612437838284613095565b50505092915050565b60008135905061244f81613116565b92915050565b6000806040838503121561246857600080fd5b6000612476858286016122bc565b925050602061248785828601612440565b9150509250929050565b60008060008060008060008060006101208a8c0312156124b057600080fd5b60008a013567ffffffffffffffff8111156124ca57600080fd5b6124d68c828d016123ec565b99505060208a013567ffffffffffffffff8111156124f357600080fd5b6124ff8c828d016123ec565b98505060408a013567ffffffffffffffff81111561251c57600080fd5b6125288c828d016123ec565b97505060608a013567ffffffffffffffff81111561254557600080fd5b6125518c828d016123ec565b96505060806125628c828d01612440565b95505060a08a013567ffffffffffffffff81111561257f57600080fd5b61258b8c828d016122d1565b94505060c08a013567ffffffffffffffff8111156125a857600080fd5b6125b48c828d01612354565b93505060e06125c58c828d01612440565b9250506101008a013567ffffffffffffffff8111156125e357600080fd5b6125ef8c828d016123ec565b9150509295985092959850929598565b60006020828403121561261157600080fd5b600061261f84828501612440565b91505092915050565b6000806040838503121561263b57600080fd5b600061264985828601612440565b925050602083013567ffffffffffffffff81111561266657600080fd5b61267285828601612354565b9150509250929050565b6000806040838503121561268f57600080fd5b600061269d85828601612440565b92505060206126ae85828601612440565b9150509250929050565b60006126c48383612b04565b905092915050565b6126d581613031565b82525050565b60006126e682612fd0565b6126f08185612ffe565b93508360208202850161270285612fab565b8060005b8581101561273e578484038952815161271f85826126b8565b945061272a83612ff1565b925060208a01995050600181019050612706565b50829750879550505050505092915050565b61275981613043565b82525050565b61276881613043565b82525050565b6127778161304f565b82525050565b6127868161304f565b82525050565b61279581613083565b82525050565b60006127a682612fe6565b6127b08185613020565b93506127c08185602086016130a4565b6127c9816130d7565b840191505092915050565b60006127df82612fdb565b6127e9818561300f565b93506127f98185602086016130a4565b612802816130d7565b840191505092915050565b600061281882612fdb565b6128228185613020565b93506128328185602086016130a4565b61283b816130d7565b840191505092915050565b6000815460018116600081146128635760018114612889576128cd565b607f60028304166128748187613020565b955060ff1983168652602086019350506128cd565b600282046128978187613020565b95506128a285612fbb565b60005b828110156128c4578154818901526001820191506020810190506128a5565b80880195505050505b505092915050565b60006128e2602083613020565b91507f4f6e6c7920746865206f776e65722063616e20656e6420746865206576656e746000830152602082019050919050565b6000612922602283613020565b91507f4f6e6c7920746865206f776e65722063616e2063726561746520616e2065766560008301527f6e740000000000000000000000000000000000000000000000000000000000006020830152604082019050919050565b6000612988602583613020565b91507f596f75206861766520616c726561647920766f74656420666f7220746869732060008301527f6576656e740000000000000000000000000000000000000000000000000000006020830152604082019050919050565b6060820160008201516129f7600085018261276e565b506020820151612a0a6020850182612be5565b506040820151612a1d6040850182612be5565b50505050565b6000610120830160008301518482036000860152612a4182826127d4565b91505060208301518482036020860152612a5b82826127d4565b91505060408301518482036040860152612a7582826127d4565b91505060608301518482036060860152612a8f82826127d4565b91505060808301518482036080860152612aa982826127d4565b91505060a0830151612abe60a0860182612be5565b5060c0830151612ad160c0860182612be5565b5060e0830151612ae460e0860182612be5565b50610100830151612af9610100860182612750565b508091505092915050565b6000610120830160008301518482036000860152612b2282826127d4565b91505060208301518482036020860152612b3c82826127d4565b91505060408301518482036040860152612b5682826127d4565b91505060608301518482036060860152612b7082826127d4565b91505060808301518482036080860152612b8a82826127d4565b91505060a0830151612b9f60a0860182612be5565b5060c0830151612bb260c0860182612be5565b5060e0830151612bc560e0860182612be5565b50610100830151612bda610100860182612750565b508091505092915050565b612bee81613079565b82525050565b612bfd81613079565b82525050565b6000602082019050612c1860008301846126cc565b92915050565b60006020820190508181036000830152612c3881846126db565b905092915050565b6000602082019050612c55600083018461275f565b92915050565b6000602082019050612c70600083018461277d565b92915050565b6000610100820190508181036000830152612c91818b61279b565b90508181036020830152612ca5818a61279b565b90508181036040830152612cb9818961279b565b90508181036060830152612ccd818861279b565b90508181036080830152612ce1818761279b565b9050612cf060a0830186612bf4565b612cfd60c083018561278c565b612d0a60e0830184612bf4565b9998505050505050505050565b6000610120820190508181036000830152612d32818c61280d565b90508181036020830152612d46818b61280d565b90508181036040830152612d5a818a61280d565b90508181036060830152612d6e818961280d565b90508181036080830152612d82818861280d565b9050612d9160a0830187612bf4565b612d9e60c0830186612bf4565b612dab60e0830185612bf4565b612db961010083018461275f565b9a9950505050505050505050565b60006060820190508181036000830152612de18186612846565b9050612df0602083018561277d565b612dfd6040830184612bf4565b949350505050565b60006020820190508181036000830152612e1e816128d5565b9050919050565b60006020820190508181036000830152612e3e81612915565b9050919050565b60006020820190508181036000830152612e5e8161297b565b9050919050565b6000606082019050612e7a60008301846129e1565b92915050565b60006020820190508181036000830152612e9a8184612a23565b905092915050565b6000602082019050612eb76000830184612bf4565b92915050565b6000608082019050612ed26000830187612bf4565b612edf6020830186612bf4565b612eec6040830185612bf4565b612ef96060830184612bf4565b95945050505050565b6000604051905081810181811067ffffffffffffffff82111715612f2557600080fd5b8060405250919050565b600067ffffffffffffffff821115612f4657600080fd5b602082029050602081019050919050565b600067ffffffffffffffff821115612f6e57600080fd5b602082029050602081019050919050565b600067ffffffffffffffff821115612f9657600080fd5b601f19601f8301169050602081019050919050565b6000819050602082019050919050565b60008190508160005260206000209050919050565b600081519050919050565b600081519050919050565b600081519050919050565b6000602082019050919050565b600082825260208201905092915050565b600082825260208201905092915050565b600082825260208201905092915050565b600061303c82613059565b9050919050565b60008115159050919050565b6000819050919050565b600073ffffffffffffffffffffffffffffffffffffffff82169050919050565b6000819050919050565b600061308e82613079565b9050919050565b82818337600083830152505050565b60005b838110156130c25780820151818401526020810190506130a7565b838111156130d1576000848401525b50505050565b6000601f19601f8301169050919050565b6130f181613031565b81146130fc57600080fd5b50565b6131088161304f565b811461311357600080fd5b50565b61311f81613079565b811461312a57600080fd5b5056fea365627a7a72315820c195234fe66fb17b20130a5b84a838ced5523d991e5c7d4737804a397150c6f46c6578706572696d656e74616cf564736f6c63430005110040",
  "source": "pragma solidity ^0.5.0;\npragma experimental ABIEncoderV2; \n\n// contract for voting in a ballot\ncontract Ballot{\n    address public owner;\n    struct Voter{\n        uint weight;\n    }\n    // struct for a proposal\n    struct Candidate{\n        bytes32 name;\n        uint id;\n        uint voteCount;\n    }\n\n    struct Event{\n        string name;\n        string endTime;\n        string typ;\n        string desc;\n        string organiser;\n        uint expectedVotes;\n        uint totalVotes;\n        uint eventId;\n        bool isAlive;\n\n    }\n\n    event EventCreated(string name, string endTime, string typ, string desc, string organiser, uint expectedVotes, uint totalVotes, uint eventId);\n\n    event voteCasted(uint eventId, uint candidateId, uint voteCount, uint totalVotes);\n\n    event winner(string eventName, bytes32 name, uint voteCount);\n    // mapping of voters\n    mapping(address => Voter) voters;\n\n    mapping(address => Event) hasVoted;\n\n    // array of proposals\n    mapping(uint => Candidate []) listCandidates;\n\n    constructor() public{\n        owner = msg.sender;\n    }\n\n    Event[] public events;\n\n    // create voting event\n    function createEvent(string memory _name,string memory desc, string memory organiser, string memory _endTime, uint _expectedVotes, bytes32[] memory _candidateNames, uint[] memory _candidateIds, uint evenId, string memory typ) public returns(bool success){\n        require(msg.sender == owner, \"Only the owner can create an event\");\n        events.push(Event({\n            name: _name,\n            endTime: _endTime,\n            expectedVotes: _expectedVotes,\n            totalVotes: 0,\n            typ: typ,\n            eventId: evenId,\n            desc: desc, \n            organiser: organiser,\n            isAlive: true\n        }));\n\n        emit EventCreated(_name, _endTime, typ, desc, organiser, _expectedVotes, 0, evenId);\n        // create candidates and map them to the event\n        for(uint i = 0; i < _candidateNames.length; i++){\n            listCandidates[evenId].push(Candidate({\n                name: _candidateNames[i],\n                id: _candidateIds[i],\n                voteCount: 0\n            }));\n        }\n\n        return true;\n    }\n\n    function getEvents() public view returns(Event[] memory){\n        return events;\n    }\n\n    function getEventById(uint _eventId) public view returns(Event memory){\n        Event memory eventsi;\n        for(uint i = 0; i < events.length; i++){\n            if(events[i].eventId == _eventId){\n                eventsi = events[i];\n            }\n        }\n        return eventsi;\n    }\n\n    function getEventLength() public view returns(uint){\n        return events.length;\n    }\n\n    function getEventByIndex(uint index) public view returns(Event memory){\n        return events[index];\n    }\n\n    function getCandidatesLength(uint _eventId) public view returns(uint){\n        return listCandidates[_eventId].length;\n    }\n\n    function getCandidate(uint _eventId, uint index) public view returns(Candidate memory){\n        return listCandidates[_eventId][index];\n    }\n\n    // vote for a candidate\n    function approvalVoting(uint _eventId, uint [] memory _candidateId) public{\n        if(voters[msg.sender].weight == 0){\n            voters[msg.sender] = Voter({\n                weight: 1\n            });\n        }\n        if(hasVoted[msg.sender].eventId == _eventId){\n            revert(\"You have already voted for this event\");\n        }\n        Voter storage sender = voters[msg.sender];\n        events[_eventId].totalVotes += 1;\n        for(uint i = 0; i < _candidateId.length; i++){\n            msg.sender.transfer(0.5 ether);\n            listCandidates[_eventId][_candidateId[i]].voteCount += 1;\n        }\n        hasVoted[msg.sender] = events[_eventId];\n    }\n\n    function singleVoting(uint _eventId, uint _candidateId) public{\n        if(voters[msg.sender].weight == 0){\n            voters[msg.sender] = Voter({\n                weight: 1\n            });\n        }\n        if(hasVoted[msg.sender].eventId == _eventId){\n            revert(\"You have already voted for this event\");\n        }\n        Voter storage sender = voters[msg.sender];\n        events[_eventId].totalVotes += 1;\n        msg.sender.transfer(0.5 ether);\n        listCandidates[_eventId][_candidateId].voteCount += 1;\n        emit voteCasted(_eventId, _candidateId, listCandidates[_eventId][_candidateId].voteCount, events[_eventId].totalVotes);\n        hasVoted[msg.sender] = events[_eventId];\n    }\n\n    function isAllowedToVote(address _voter, uint _eventId) public view returns(bool){\n        if(hasVoted[_voter].eventId == _eventId){\n            return false;\n        }\n        return true;\n    }\n    \n    function isOwner () public view returns(bool){\n        return msg.sender == owner;\n    }\n\n    function showOwner () public view returns(address){\n        return owner;\n    }\n\n    function endAndDeclareWinner(uint _eventId) public returns(bytes32){\n        require(msg.sender == owner, \"Only the owner can end the event\");\n        uint max = 0;\n        uint index = 0;\n        for(uint i = 0; i < listCandidates[_eventId].length; i++){\n            if(listCandidates[_eventId][i].voteCount > max){\n                max = listCandidates[_eventId][i].voteCount;\n                index = i;\n            }\n        }\n        uint i = 0;\n        for(i; i < events.length; i++){\n            if(events[i].eventId == _eventId){\n                events[i].isAlive = false;\n                break;\n            }\n        }\n        emit winner(events[i].name, listCandidates[_eventId][index].name, listCandidates[_eventId][index].voteCount);\n        return listCandidates[_eventId][index].name;\n    }\n}",
  "sourcePath": "/Users/premalbrahmbhatt/Desktop/coc/Trinity-Hackathon/trinity/src/contracts/Ballot.sol",
  "compiler": {
    "name": "solc",
    "version": "0.5.17+commit.d19bba13.Emscripten.clang"
  },
  "schemaVersion": "3.4.12",
  "updatedAt": "2023-03-05T04:16:40.459Z",
  "networkType": "ethereum",
  "devdoc": {
    "methods": {}
  },
  "userdoc": {
    "methods": {}
  }
}