{
  "contractName": "Ballot",
  "abi": [
    {
      "inputs": [],
      "payable": false,
      "stateMutability": "nonpayable",
      "type": "constructor"
    },
    {
      "anonymous": false,
      "inputs": [
        {
          "indexed": false,
          "internalType": "string",
          "name": "name",
          "type": "string"
        },
        {
          "indexed": false,
          "internalType": "string",
          "name": "endTime",
          "type": "string"
        },
        {
          "indexed": false,
          "internalType": "string",
          "name": "typ",
          "type": "string"
        },
        {
          "indexed": false,
          "internalType": "string",
          "name": "desc",
          "type": "string"
        },
        {
          "indexed": false,
          "internalType": "string",
          "name": "organiser",
          "type": "string"
        },
        {
          "indexed": false,
          "internalType": "uint256",
          "name": "expectedVotes",
          "type": "uint256"
        },
        {
          "indexed": false,
          "internalType": "uint256",
          "name": "totalVotes",
          "type": "uint256"
        },
        {
          "indexed": false,
          "internalType": "uint256",
          "name": "eventId",
          "type": "uint256"
        }
      ],
      "name": "EventCreated",
      "type": "event"
    },
    {
      "anonymous": false,
      "inputs": [
        {
          "indexed": false,
          "internalType": "uint256",
          "name": "eventId",
          "type": "uint256"
        },
        {
          "indexed": false,
          "internalType": "uint256",
          "name": "candidateId",
          "type": "uint256"
        },
        {
          "indexed": false,
          "internalType": "uint256",
          "name": "voteCount",
          "type": "uint256"
        },
        {
          "indexed": false,
          "internalType": "uint256",
          "name": "totalVotes",
          "type": "uint256"
        }
      ],
      "name": "voteCasted",
      "type": "event"
    },
    {
      "constant": true,
      "inputs": [
        {
          "internalType": "uint256",
          "name": "",
          "type": "uint256"
        }
      ],
      "name": "events",
      "outputs": [
        {
          "internalType": "string",
          "name": "name",
          "type": "string"
        },
        {
          "internalType": "string",
          "name": "endTime",
          "type": "string"
        },
        {
          "internalType": "string",
          "name": "typ",
          "type": "string"
        },
        {
          "internalType": "string",
          "name": "desc",
          "type": "string"
        },
        {
          "internalType": "string",
          "name": "organiser",
          "type": "string"
        },
        {
          "internalType": "uint256",
          "name": "expectedVotes",
          "type": "uint256"
        },
        {
          "internalType": "uint256",
          "name": "totalVotes",
          "type": "uint256"
        },
        {
          "internalType": "uint256",
          "name": "eventId",
          "type": "uint256"
        }
      ],
      "payable": false,
      "stateMutability": "view",
      "type": "function"
    },
    {
      "constant": true,
      "inputs": [],
      "name": "owner",
      "outputs": [
        {
          "internalType": "address",
          "name": "",
          "type": "address"
        }
      ],
      "payable": false,
      "stateMutability": "view",
      "type": "function"
    },
    {
      "constant": false,
      "inputs": [
        {
          "internalType": "string",
          "name": "_name",
          "type": "string"
        },
        {
          "internalType": "string",
          "name": "desc",
          "type": "string"
        },
        {
          "internalType": "string",
          "name": "organiser",
          "type": "string"
        },
        {
          "internalType": "string",
          "name": "_endTime",
          "type": "string"
        },
        {
          "internalType": "uint256",
          "name": "_expectedVotes",
          "type": "uint256"
        },
        {
          "internalType": "bytes32[]",
          "name": "_candidateNames",
          "type": "bytes32[]"
        },
        {
          "internalType": "uint256[]",
          "name": "_candidateIds",
          "type": "uint256[]"
        },
        {
          "internalType": "uint256",
          "name": "evenId",
          "type": "uint256"
        },
        {
          "internalType": "string",
          "name": "typ",
          "type": "string"
        }
      ],
      "name": "createEvent",
      "outputs": [
        {
          "internalType": "bool",
          "name": "success",
          "type": "bool"
        }
      ],
      "payable": false,
      "stateMutability": "nonpayable",
      "type": "function"
    },
    {
      "constant": true,
      "inputs": [],
      "name": "getEvents",
      "outputs": [
        {
          "components": [
            {
              "internalType": "string",
              "name": "name",
              "type": "string"
            },
            {
              "internalType": "string",
              "name": "endTime",
              "type": "string"
            },
            {
              "internalType": "string",
              "name": "typ",
              "type": "string"
            },
            {
              "internalType": "string",
              "name": "desc",
              "type": "string"
            },
            {
              "internalType": "string",
              "name": "organiser",
              "type": "string"
            },
            {
              "internalType": "uint256",
              "name": "expectedVotes",
              "type": "uint256"
            },
            {
              "internalType": "uint256",
              "name": "totalVotes",
              "type": "uint256"
            },
            {
              "internalType": "uint256",
              "name": "eventId",
              "type": "uint256"
            }
          ],
          "internalType": "struct Ballot.Event[]",
          "name": "",
          "type": "tuple[]"
        }
      ],
      "payable": false,
      "stateMutability": "view",
      "type": "function"
    },
    {
      "constant": true,
      "inputs": [
        {
          "internalType": "uint256",
          "name": "_eventId",
          "type": "uint256"
        }
      ],
      "name": "getEventById",
      "outputs": [
        {
          "components": [
            {
              "internalType": "string",
              "name": "name",
              "type": "string"
            },
            {
              "internalType": "string",
              "name": "endTime",
              "type": "string"
            },
            {
              "internalType": "string",
              "name": "typ",
              "type": "string"
            },
            {
              "internalType": "string",
              "name": "desc",
              "type": "string"
            },
            {
              "internalType": "string",
              "name": "organiser",
              "type": "string"
            },
            {
              "internalType": "uint256",
              "name": "expectedVotes",
              "type": "uint256"
            },
            {
              "internalType": "uint256",
              "name": "totalVotes",
              "type": "uint256"
            },
            {
              "internalType": "uint256",
              "name": "eventId",
              "type": "uint256"
            }
          ],
          "internalType": "struct Ballot.Event",
          "name": "",
          "type": "tuple"
        }
      ],
      "payable": false,
      "stateMutability": "view",
      "type": "function"
    },
    {
      "constant": true,
      "inputs": [],
      "name": "getEventLength",
      "outputs": [
        {
          "internalType": "uint256",
          "name": "",
          "type": "uint256"
        }
      ],
      "payable": false,
      "stateMutability": "view",
      "type": "function"
    },
    {
      "constant": true,
      "inputs": [
        {
          "internalType": "uint256",
          "name": "index",
          "type": "uint256"
        }
      ],
      "name": "getEventByIndex",
      "outputs": [
        {
          "components": [
            {
              "internalType": "string",
              "name": "name",
              "type": "string"
            },
            {
              "internalType": "string",
              "name": "endTime",
              "type": "string"
            },
            {
              "internalType": "string",
              "name": "typ",
              "type": "string"
            },
            {
              "internalType": "string",
              "name": "desc",
              "type": "string"
            },
            {
              "internalType": "string",
              "name": "organiser",
              "type": "string"
            },
            {
              "internalType": "uint256",
              "name": "expectedVotes",
              "type": "uint256"
            },
            {
              "internalType": "uint256",
              "name": "totalVotes",
              "type": "uint256"
            },
            {
              "internalType": "uint256",
              "name": "eventId",
              "type": "uint256"
            }
          ],
          "internalType": "struct Ballot.Event",
          "name": "",
          "type": "tuple"
        }
      ],
      "payable": false,
      "stateMutability": "view",
      "type": "function"
    },
    {
      "constant": true,
      "inputs": [
        {
          "internalType": "uint256",
          "name": "_eventId",
          "type": "uint256"
        }
      ],
      "name": "getCandidatesLength",
      "outputs": [
        {
          "internalType": "uint256",
          "name": "",
          "type": "uint256"
        }
      ],
      "payable": false,
      "stateMutability": "view",
      "type": "function"
    },
    {
      "constant": true,
      "inputs": [
        {
          "internalType": "uint256",
          "name": "_eventId",
          "type": "uint256"
        },
        {
          "internalType": "uint256",
          "name": "index",
          "type": "uint256"
        }
      ],
      "name": "getCandidate",
      "outputs": [
        {
          "components": [
            {
              "internalType": "bytes32",
              "name": "name",
              "type": "bytes32"
            },
            {
              "internalType": "uint256",
              "name": "id",
              "type": "uint256"
            },
            {
              "internalType": "uint256",
              "name": "voteCount",
              "type": "uint256"
            }
          ],
          "internalType": "struct Ballot.Candidate",
          "name": "",
          "type": "tuple"
        }
      ],
      "payable": false,
      "stateMutability": "view",
      "type": "function"
    },
    {
      "constant": false,
      "inputs": [
        {
          "internalType": "uint256",
          "name": "_eventId",
          "type": "uint256"
        },
        {
          "internalType": "uint256[]",
          "name": "_candidateId",
          "type": "uint256[]"
        }
      ],
      "name": "approvalVoting",
      "outputs": [],
      "payable": false,
      "stateMutability": "nonpayable",
      "type": "function"
    },
    {
      "constant": false,
      "inputs": [
        {
          "internalType": "uint256",
          "name": "_eventId",
          "type": "uint256"
        },
        {
          "internalType": "uint256",
          "name": "_candidateId",
          "type": "uint256"
        }
      ],
      "name": "singleVoting",
      "outputs": [],
      "payable": false,
      "stateMutability": "nonpayable",
      "type": "function"
    },
    {
      "constant": true,
      "inputs": [],
      "name": "isOwner",
      "outputs": [
        {
          "internalType": "bool",
          "name": "",
          "type": "bool"
        }
      ],
      "payable": false,
      "stateMutability": "view",
      "type": "function"
    },
    {
      "constant": true,
      "inputs": [],
      "name": "showOwner",
      "outputs": [
        {
          "internalType": "address",
          "name": "",
          "type": "address"
        }
      ],
      "payable": false,
      "stateMutability": "view",
      "type": "function"
    }
  ],
  "bytecode": "0x608060405234801561001057600080fd5b50336000806101000a81548173ffffffffffffffffffffffffffffffffffffffff021916908373ffffffffffffffffffffffffffffffffffffffff1602179055506127c3806100606000396000f3fe608060405234801561001057600080fd5b50600436106100cf5760003560e01c80638025169f1161008c5780639b6b6d3e116100665780639b6b6d3e1461021b578063b98079bc1461024b578063d41808ed1461027b578063ded94688146102ab576100cf565b80638025169f146101c35780638da5cb5b146101df5780638f32d59b146101fd576100cf565b80630b791430146100d4578063404aa8f91461010b5780634bd46448146101295780635c98dfa11461015957806374c638151461017757806379b9dd5c146101a7575b600080fd5b6100ee60048036036100e99190810190611e43565b6102c9565b604051610102989796959493929190612403565b60405180910390f35b610113610616565b6040516101209190612325565b60405180910390f35b610143600480360361013e9190810190611ec0565b6109be565b60405161015091906124e4565b60405180910390f35b610161610a23565b60405161016e9190612521565b60405180910390f35b610191600480360361018c9190810190611e43565b610a30565b60405161019e9190612521565b60405180910390f35b6101c160048036036101bc9190810190611ec0565b610a50565b005b6101dd60048036036101d89190810190611e6c565b610d1c565b005b6101e7610f8e565b6040516101f4919061230a565b60405180910390f35b610205610fb3565b6040516102129190612347565b60405180910390f35b61023560048036036102309190810190611e43565b61100a565b60405161024291906124ff565b60405180910390f35b61026560048036036102609190810190611e43565b611388565b60405161027291906124ff565b60405180910390f35b61029560048036036102909190810190611cd5565b61175a565b6040516102a29190612347565b60405180910390f35b6102b3611a1a565b6040516102c0919061230a565b60405180910390f35b600381815481106102d657fe5b9060005260206000209060080201600091509050806000018054600181600116156101000203166002900480601f0160208091040260200160405190810160405280929190818152602001828054600181600116156101000203166002900480156103825780601f1061035757610100808354040283529160200191610382565b820191906000526020600020905b81548152906001019060200180831161036557829003601f168201915b505050505090806001018054600181600116156101000203166002900480601f0160208091040260200160405190810160405280929190818152602001828054600181600116156101000203166002900480156104205780601f106103f557610100808354040283529160200191610420565b820191906000526020600020905b81548152906001019060200180831161040357829003601f168201915b505050505090806002018054600181600116156101000203166002900480601f0160208091040260200160405190810160405280929190818152602001828054600181600116156101000203166002900480156104be5780601f10610493576101008083540402835291602001916104be565b820191906000526020600020905b8154815290600101906020018083116104a157829003601f168201915b505050505090806003018054600181600116156101000203166002900480601f01602080910402602001604051908101604052809291908181526020018280546001816001161561010002031660029004801561055c5780601f106105315761010080835404028352916020019161055c565b820191906000526020600020905b81548152906001019060200180831161053f57829003601f168201915b505050505090806004018054600181600116156101000203166002900480601f0160208091040260200160405190810160405280929190818152602001828054600181600116156101000203166002900480156105fa5780601f106105cf576101008083540402835291602001916105fa565b820191906000526020600020905b8154815290600101906020018083116105dd57829003601f168201915b5050505050908060050154908060060154908060070154905088565b60606003805480602002602001604051908101604052809291908181526020016000905b828210156109b5578382906000526020600020906008020160405180610100016040529081600082018054600181600116156101000203166002900480601f0160208091040260200160405190810160405280929190818152602001828054600181600116156101000203166002900480156106f75780601f106106cc576101008083540402835291602001916106f7565b820191906000526020600020905b8154815290600101906020018083116106da57829003601f168201915b50505050508152602001600182018054600181600116156101000203166002900480601f0160208091040260200160405190810160405280929190818152602001828054600181600116156101000203166002900480156107995780601f1061076e57610100808354040283529160200191610799565b820191906000526020600020905b81548152906001019060200180831161077c57829003601f168201915b50505050508152602001600282018054600181600116156101000203166002900480601f01602080910402602001604051908101604052809291908181526020018280546001816001161561010002031660029004801561083b5780601f106108105761010080835404028352916020019161083b565b820191906000526020600020905b81548152906001019060200180831161081e57829003601f168201915b50505050508152602001600382018054600181600116156101000203166002900480601f0160208091040260200160405190810160405280929190818152602001828054600181600116156101000203166002900480156108dd5780601f106108b2576101008083540402835291602001916108dd565b820191906000526020600020905b8154815290600101906020018083116108c057829003601f168201915b50505050508152602001600482018054600181600116156101000203166002900480601f01602080910402602001604051908101604052809291908181526020018280546001816001161561010002031660029004801561097f5780601f106109545761010080835404028352916020019161097f565b820191906000526020600020905b81548152906001019060200180831161096257829003601f168201915b5050505050815260200160058201548152602001600682015481526020016007820154815250508152602001906001019061063a565b50505050905090565b6109c6611a43565b6002600084815260200190815260200160002082815481106109e457fe5b90600052602060002090600302016040518060600160405290816000820154815260200160018201548152602001600282015481525050905092915050565b6000600380549050905090565b600060026000838152602001908152602001600020805490509050919050565b6000600160003373ffffffffffffffffffffffffffffffffffffffff1673ffffffffffffffffffffffffffffffffffffffff168152602001908152602001600020600001541415610b215760405180604001604052806001815260200160001515815250600160003373ffffffffffffffffffffffffffffffffffffffff1673ffffffffffffffffffffffffffffffffffffffff1681526020019081526020016000206000820151816000015560208201518160010160006101000a81548160ff0219169083151502179055509050505b6000600160003373ffffffffffffffffffffffffffffffffffffffff1673ffffffffffffffffffffffffffffffffffffffff16815260200190815260200160002090508060010160009054906101000a900460ff1615610bb6576040517f08c379a0000000000000000000000000000000000000000000000000000000008152600401610bad906124a4565b60405180910390fd5b60018160010160006101000a81548160ff021916908315150217905550600160038481548110610be257fe5b9060005260206000209060080201600601600082825401925050819055503373ffffffffffffffffffffffffffffffffffffffff166108fc6706f05b59d3b200009081150290604051600060405180830381858888f19350505050158015610c4e573d6000803e3d6000fd5b506001600260008581526020019081526020016000208381548110610c6f57fe5b9060005260206000209060030201600201600082825401925050819055507f16359201c8364e7645a6a05c0540a23f7fe46694751ab261e345ed52e4f9778d8383600260008781526020019081526020016000208581548110610cce57fe5b90600052602060002090600302016002015460038781548110610ced57fe5b906000526020600020906008020160060154604051610d0f949392919061253c565b60405180910390a1505050565b6000600160003373ffffffffffffffffffffffffffffffffffffffff1673ffffffffffffffffffffffffffffffffffffffff168152602001908152602001600020600001541415610ded5760405180604001604052806001815260200160001515815250600160003373ffffffffffffffffffffffffffffffffffffffff1673ffffffffffffffffffffffffffffffffffffffff1681526020019081526020016000206000820151816000015560208201518160010160006101000a81548160ff0219169083151502179055509050505b6000600160003373ffffffffffffffffffffffffffffffffffffffff1673ffffffffffffffffffffffffffffffffffffffff16815260200190815260200160002090508060010160009054906101000a900460ff1615610e82576040517f08c379a0000000000000000000000000000000000000000000000000000000008152600401610e79906124a4565b60405180910390fd5b60018160010160006101000a81548160ff021916908315150217905550600160038481548110610eae57fe5b90600052602060002090600802016006016000828254019250508190555060008090505b8251811015610f88573373ffffffffffffffffffffffffffffffffffffffff166108fc6706f05b59d3b200009081150290604051600060405180830381858888f19350505050158015610f29573d6000803e3d6000fd5b50600160026000868152602001908152602001600020848381518110610f4b57fe5b602002602001015181548110610f5d57fe5b9060005260206000209060030201600201600082825401925050819055508080600101915050610ed2565b50505050565b6000809054906101000a900473ffffffffffffffffffffffffffffffffffffffff1681565b60008060009054906101000a900473ffffffffffffffffffffffffffffffffffffffff1673ffffffffffffffffffffffffffffffffffffffff163373ffffffffffffffffffffffffffffffffffffffff1614905090565b611012611a67565b6003828154811061101f57fe5b906000526020600020906008020160405180610100016040529081600082018054600181600116156101000203166002900480601f0160208091040260200160405190810160405280929190818152602001828054600181600116156101000203166002900480156110d25780601f106110a7576101008083540402835291602001916110d2565b820191906000526020600020905b8154815290600101906020018083116110b557829003601f168201915b50505050508152602001600182018054600181600116156101000203166002900480601f0160208091040260200160405190810160405280929190818152602001828054600181600116156101000203166002900480156111745780601f1061114957610100808354040283529160200191611174565b820191906000526020600020905b81548152906001019060200180831161115757829003601f168201915b50505050508152602001600282018054600181600116156101000203166002900480601f0160208091040260200160405190810160405280929190818152602001828054600181600116156101000203166002900480156112165780601f106111eb57610100808354040283529160200191611216565b820191906000526020600020905b8154815290600101906020018083116111f957829003601f168201915b50505050508152602001600382018054600181600116156101000203166002900480601f0160208091040260200160405190810160405280929190818152602001828054600181600116156101000203166002900480156112b85780601f1061128d576101008083540402835291602001916112b8565b820191906000526020600020905b81548152906001019060200180831161129b57829003601f168201915b50505050508152602001600482018054600181600116156101000203166002900480601f01602080910402602001604051908101604052809291908181526020018280546001816001161561010002031660029004801561135a5780601f1061132f5761010080835404028352916020019161135a565b820191906000526020600020905b81548152906001019060200180831161133d57829003601f168201915b5050505050815260200160058201548152602001600682015481526020016007820154815250509050919050565b611390611a67565b611398611a67565b60008090505b6003805490508110156117505783600382815481106113b957fe5b906000526020600020906008020160070154141561174357600381815481106113de57fe5b906000526020600020906008020160405180610100016040529081600082018054600181600116156101000203166002900480601f0160208091040260200160405190810160405280929190818152602001828054600181600116156101000203166002900480156114915780601f1061146657610100808354040283529160200191611491565b820191906000526020600020905b81548152906001019060200180831161147457829003601f168201915b50505050508152602001600182018054600181600116156101000203166002900480601f0160208091040260200160405190810160405280929190818152602001828054600181600116156101000203166002900480156115335780601f1061150857610100808354040283529160200191611533565b820191906000526020600020905b81548152906001019060200180831161151657829003601f168201915b50505050508152602001600282018054600181600116156101000203166002900480601f0160208091040260200160405190810160405280929190818152602001828054600181600116156101000203166002900480156115d55780601f106115aa576101008083540402835291602001916115d5565b820191906000526020600020905b8154815290600101906020018083116115b857829003601f168201915b50505050508152602001600382018054600181600116156101000203166002900480601f0160208091040260200160405190810160405280929190818152602001828054600181600116156101000203166002900480156116775780601f1061164c57610100808354040283529160200191611677565b820191906000526020600020905b81548152906001019060200180831161165a57829003601f168201915b50505050508152602001600482018054600181600116156101000203166002900480601f0160208091040260200160405190810160405280929190818152602001828054600181600116156101000203166002900480156117195780601f106116ee57610100808354040283529160200191611719565b820191906000526020600020905b8154815290600101906020018083116116fc57829003601f168201915b50505050508152602001600582015481526020016006820154815260200160078201548152505091505b808060010191505061139e565b5080915050919050565b60008060009054906101000a900473ffffffffffffffffffffffffffffffffffffffff1673ffffffffffffffffffffffffffffffffffffffff163373ffffffffffffffffffffffffffffffffffffffff16146117eb576040517f08c379a00000000000000000000000000000000000000000000000000000000081526004016117e2906124c4565b60405180910390fd5b60036040518061010001604052808c81526020018981526020018481526020018b81526020018a8152602001888152602001600081526020018581525090806001815401808255809150509060018203906000526020600020906008020160009091929091909150600082015181600001908051906020019061186f929190611aac565b50602082015181600101908051906020019061188c929190611aac565b5060408201518160020190805190602001906118a9929190611aac565b5060608201518160030190805190602001906118c6929190611aac565b5060808201518160040190805190602001906118e3929190611aac565b5060a0820151816005015560c0820151816006015560e082015181600701555050507fd9b5d68aea5a1a58bded9ebb3567dd3633dc56d79484a4daf5744a611f67fd078a88848c8c8b60008a604051611943989796959493929190612362565b60405180910390a160008090505b8551811015611a085760026000858152602001908152602001600020604051806060016040528088848151811061198457fe5b6020026020010151815260200187848151811061199d57fe5b602002602001015181526020016000815250908060018154018082558091505090600182039060005260206000209060030201600090919290919091506000820151816000015560208201518160010155604082015181600201555050508080600101915050611951565b50600190509998505050505050505050565b60008060009054906101000a900473ffffffffffffffffffffffffffffffffffffffff16905090565b60405180606001604052806000801916815260200160008152602001600081525090565b60405180610100016040528060608152602001606081526020016060815260200160608152602001606081526020016000815260200160008152602001600081525090565b828054600181600116156101000203166002900490600052602060002090601f016020900481019282601f10611aed57805160ff1916838001178555611b1b565b82800160010185558215611b1b579182015b82811115611b1a578251825591602001919060010190611aff565b5b509050611b289190611b2c565b5090565b611b4e91905b80821115611b4a576000816000905550600101611b32565b5090565b90565b600082601f830112611b6257600080fd5b8135611b75611b70826125ae565b612581565b91508181835260208401935060208101905083856020840282011115611b9a57600080fd5b60005b83811015611bca5781611bb08882611c57565b845260208401935060208301925050600181019050611b9d565b5050505092915050565b600082601f830112611be557600080fd5b8135611bf8611bf3826125d6565b612581565b91508181835260208401935060208101905083856020840282011115611c1d57600080fd5b60005b83811015611c4d5781611c338882611cc0565b845260208401935060208301925050600181019050611c20565b5050505092915050565b600081359050611c6681612752565b92915050565b600082601f830112611c7d57600080fd5b8135611c90611c8b826125fe565b612581565b91508082526020830160208301858383011115611cac57600080fd5b611cb78382846126ff565b50505092915050565b600081359050611ccf81612769565b92915050565b60008060008060008060008060006101208a8c031215611cf457600080fd5b60008a013567ffffffffffffffff811115611d0e57600080fd5b611d1a8c828d01611c6c565b99505060208a013567ffffffffffffffff811115611d3757600080fd5b611d438c828d01611c6c565b98505060408a013567ffffffffffffffff811115611d6057600080fd5b611d6c8c828d01611c6c565b97505060608a013567ffffffffffffffff811115611d8957600080fd5b611d958c828d01611c6c565b9650506080611da68c828d01611cc0565b95505060a08a013567ffffffffffffffff811115611dc357600080fd5b611dcf8c828d01611b51565b94505060c08a013567ffffffffffffffff811115611dec57600080fd5b611df88c828d01611bd4565b93505060e0611e098c828d01611cc0565b9250506101008a013567ffffffffffffffff811115611e2757600080fd5b611e338c828d01611c6c565b9150509295985092959850929598565b600060208284031215611e5557600080fd5b6000611e6384828501611cc0565b91505092915050565b60008060408385031215611e7f57600080fd5b6000611e8d85828601611cc0565b925050602083013567ffffffffffffffff811115611eaa57600080fd5b611eb685828601611bd4565b9150509250929050565b60008060408385031215611ed357600080fd5b6000611ee185828601611cc0565b9250506020611ef285828601611cc0565b9150509250929050565b6000611f088383612220565b905092915050565b611f198161269b565b82525050565b6000611f2a8261263a565b611f348185612668565b935083602082028501611f468561262a565b8060005b85811015611f825784840389528151611f638582611efc565b9450611f6e8361265b565b925060208a01995050600181019050611f4a565b50829750879550505050505092915050565b611f9d816126ad565b82525050565b611fac816126b9565b82525050565b611fbb816126ed565b82525050565b6000611fcc82612650565b611fd6818561268a565b9350611fe681856020860161270e565b611fef81612741565b840191505092915050565b600061200582612645565b61200f8185612679565b935061201f81856020860161270e565b61202881612741565b840191505092915050565b600061203e82612645565b612048818561268a565b935061205881856020860161270e565b61206181612741565b840191505092915050565b6000612079600d8361268a565b91507f416c726561647920766f746564000000000000000000000000000000000000006000830152602082019050919050565b60006120b960228361268a565b91507f4f6e6c7920746865206f776e65722063616e2063726561746520616e2065766560008301527f6e740000000000000000000000000000000000000000000000000000000000006020830152604082019050919050565b6060820160008201516121286000850182611fa3565b50602082015161213b60208501826122ec565b50604082015161214e60408501826122ec565b50505050565b60006101008301600083015184820360008601526121728282611ffa565b9150506020830151848203602086015261218c8282611ffa565b915050604083015184820360408601526121a68282611ffa565b915050606083015184820360608601526121c08282611ffa565b915050608083015184820360808601526121da8282611ffa565b91505060a08301516121ef60a08601826122ec565b5060c083015161220260c08601826122ec565b5060e083015161221560e08601826122ec565b508091505092915050565b600061010083016000830151848203600086015261223e8282611ffa565b915050602083015184820360208601526122588282611ffa565b915050604083015184820360408601526122728282611ffa565b9150506060830151848203606086015261228c8282611ffa565b915050608083015184820360808601526122a68282611ffa565b91505060a08301516122bb60a08601826122ec565b5060c08301516122ce60c08601826122ec565b5060e08301516122e160e08601826122ec565b508091505092915050565b6122f5816126e3565b82525050565b612304816126e3565b82525050565b600060208201905061231f6000830184611f10565b92915050565b6000602082019050818103600083015261233f8184611f1f565b905092915050565b600060208201905061235c6000830184611f94565b92915050565b600061010082019050818103600083015261237d818b611fc1565b90508181036020830152612391818a611fc1565b905081810360408301526123a58189611fc1565b905081810360608301526123b98188611fc1565b905081810360808301526123cd8187611fc1565b90506123dc60a08301866122fb565b6123e960c0830185611fb2565b6123f660e08301846122fb565b9998505050505050505050565b600061010082019050818103600083015261241e818b612033565b90508181036020830152612432818a612033565b905081810360408301526124468189612033565b9050818103606083015261245a8188612033565b9050818103608083015261246e8187612033565b905061247d60a08301866122fb565b61248a60c08301856122fb565b61249760e08301846122fb565b9998505050505050505050565b600060208201905081810360008301526124bd8161206c565b9050919050565b600060208201905081810360008301526124dd816120ac565b9050919050565b60006060820190506124f96000830184612112565b92915050565b600060208201905081810360008301526125198184612154565b905092915050565b600060208201905061253660008301846122fb565b92915050565b600060808201905061255160008301876122fb565b61255e60208301866122fb565b61256b60408301856122fb565b61257860608301846122fb565b95945050505050565b6000604051905081810181811067ffffffffffffffff821117156125a457600080fd5b8060405250919050565b600067ffffffffffffffff8211156125c557600080fd5b602082029050602081019050919050565b600067ffffffffffffffff8211156125ed57600080fd5b602082029050602081019050919050565b600067ffffffffffffffff82111561261557600080fd5b601f19601f8301169050602081019050919050565b6000819050602082019050919050565b600081519050919050565b600081519050919050565b600081519050919050565b6000602082019050919050565b600082825260208201905092915050565b600082825260208201905092915050565b600082825260208201905092915050565b60006126a6826126c3565b9050919050565b60008115159050919050565b6000819050919050565b600073ffffffffffffffffffffffffffffffffffffffff82169050919050565b6000819050919050565b60006126f8826126e3565b9050919050565b82818337600083830152505050565b60005b8381101561272c578082015181840152602081019050612711565b8381111561273b576000848401525b50505050565b6000601f19601f8301169050919050565b61275b816126b9565b811461276657600080fd5b50565b612772816126e3565b811461277d57600080fd5b5056fea365627a7a7231582052dca1b9c33d20110332f6fc0eeea2a7c67eeb573ae72126518a78811f40dee56c6578706572696d656e74616cf564736f6c63430005110040",
  "source": "pragma solidity ^0.5.0;\npragma experimental ABIEncoderV2; \n\n// contract for voting in a ballot\ncontract Ballot{\n    address public owner;\n    struct Voter{\n        uint weight;\n        bool voted;\n    }\n    // struct for a proposal\n    struct Candidate{\n        bytes32 name;\n        uint id;\n        uint voteCount;\n    }\n\n    struct Event{\n        string name;\n        string endTime;\n        string typ;\n        string desc;\n        string organiser;\n        uint expectedVotes;\n        uint totalVotes;\n        uint eventId;\n\n    }\n\n    event EventCreated(string name, string endTime, string typ, string desc, string organiser, uint expectedVotes, uint totalVotes, uint eventId);\n\n    event voteCasted(uint eventId, uint candidateId, uint voteCount, uint totalVotes);\n    // mapping of voters\n    mapping(address => Voter) voters;\n\n    // array of proposals\n    mapping(uint => Candidate []) listCandidates;\n\n    constructor() public{\n        owner = msg.sender;\n    }\n\n    Event[] public events;\n\n    // create voting event\n    function createEvent(string memory _name,string memory desc, string memory organiser, string memory _endTime, uint _expectedVotes, bytes32[] memory _candidateNames, uint[] memory _candidateIds, uint evenId, string memory typ) public returns(bool success){\n        require(msg.sender == owner, \"Only the owner can create an event\");\n        events.push(Event({\n            name: _name,\n            endTime: _endTime,\n            expectedVotes: _expectedVotes,\n            totalVotes: 0,\n            typ: typ,\n            eventId: evenId,\n            desc: desc, \n            organiser: organiser\n        }));\n\n        emit EventCreated(_name, _endTime, typ, desc, organiser, _expectedVotes, 0, evenId);\n        // create candidates and map them to the event\n        for(uint i = 0; i < _candidateNames.length; i++){\n            listCandidates[evenId].push(Candidate({\n                name: _candidateNames[i],\n                id: _candidateIds[i],\n                voteCount: 0\n            }));\n        }\n\n        return true;\n    }\n\n    function getEvents() public view returns(Event[] memory){\n        return events;\n    }\n\n    function getEventById(uint _eventId) public view returns(Event memory){\n        Event memory eventsi;\n        for(uint i = 0; i < events.length; i++){\n            if(events[i].eventId == _eventId){\n                eventsi = events[i];\n            }\n        }\n        return eventsi;\n    }\n\n    function getEventLength() public view returns(uint){\n        return events.length;\n    }\n\n    function getEventByIndex(uint index) public view returns(Event memory){\n        return events[index];\n    }\n\n    function getCandidatesLength(uint _eventId) public view returns(uint){\n        return listCandidates[_eventId].length;\n    }\n\n    function getCandidate(uint _eventId, uint index) public view returns(Candidate memory){\n        return listCandidates[_eventId][index];\n    }\n\n    // vote for a candidate\n    function approvalVoting(uint _eventId, uint [] memory _candidateId) public{\n        if(voters[msg.sender].weight == 0){\n            voters[msg.sender] = Voter({\n                weight: 1,\n                voted: false\n            });\n        }\n        Voter storage sender = voters[msg.sender];\n        require(!sender.voted, \"Already voted\");\n        sender.voted = true;\n        events[_eventId].totalVotes += 1;\n        for(uint i = 0; i < _candidateId.length; i++){\n            msg.sender.transfer(0.5 ether);\n            listCandidates[_eventId][_candidateId[i]].voteCount += 1;\n        }\n    }\n\n    function singleVoting(uint _eventId, uint _candidateId) public{\n        if(voters[msg.sender].weight == 0){\n            voters[msg.sender] = Voter({\n                weight: 1,\n                voted: false\n            });\n        }\n        Voter storage sender = voters[msg.sender];\n        require(!sender.voted, \"Already voted\");\n        sender.voted = true;\n        events[_eventId].totalVotes += 1;\n        msg.sender.transfer(0.5 ether);\n        listCandidates[_eventId][_candidateId].voteCount += 1;\n        emit voteCasted(_eventId, _candidateId, listCandidates[_eventId][_candidateId].voteCount, events[_eventId].totalVotes);\n    }\n\n    function isOwner () public view returns(bool){\n        return msg.sender == owner;\n    }\n\n    function showOwner () public view returns(address){\n        return owner;\n    }\n\n\n}",
  "sourcePath": "/Users/premalbrahmbhatt/Desktop/coc/Trinity-Hackathon/trinity/src/contracts/Ballot.sol",
  "compiler": {
    "name": "solc",
    "version": "0.5.17+commit.d19bba13.Emscripten.clang"
  },
  "schemaVersion": "3.4.12",
  "updatedAt": "2023-03-05T01:35:47.197Z",
  "networkType": "ethereum",
  "devdoc": {
    "methods": {}
  },
  "userdoc": {
    "methods": {}
  }
}