{
  "contractName": "Ballot",
  "abi": [
    {
      "inputs": [],
      "payable": false,
      "stateMutability": "nonpayable",
      "type": "constructor"
    },
    {
      "constant": true,
      "inputs": [
        {
          "internalType": "uint256",
          "name": "",
          "type": "uint256"
        }
      ],
      "name": "events",
      "outputs": [
        {
          "internalType": "string",
          "name": "name",
          "type": "string"
        },
        {
          "internalType": "string",
          "name": "endTime",
          "type": "string"
        },
        {
          "internalType": "uint256",
          "name": "expectedVotes",
          "type": "uint256"
        },
        {
          "internalType": "uint256",
          "name": "totalVotes",
          "type": "uint256"
        }
      ],
      "payable": false,
      "stateMutability": "view",
      "type": "function"
    },
    {
      "constant": true,
      "inputs": [],
      "name": "owner",
      "outputs": [
        {
          "internalType": "address",
          "name": "",
          "type": "address"
        }
      ],
      "payable": false,
      "stateMutability": "view",
      "type": "function"
    },
    {
      "constant": false,
      "inputs": [
        {
          "internalType": "string",
          "name": "_name",
          "type": "string"
        },
        {
          "internalType": "string",
          "name": "_endTime",
          "type": "string"
        },
        {
          "internalType": "uint256",
          "name": "_expectedVotes",
          "type": "uint256"
        },
        {
          "internalType": "bytes32[]",
          "name": "_candidateNames",
          "type": "bytes32[]"
        },
        {
          "internalType": "uint256[]",
          "name": "_candidateIds",
          "type": "uint256[]"
        },
        {
          "internalType": "uint256",
          "name": "evenId",
          "type": "uint256"
        }
      ],
      "name": "createEvent",
      "outputs": [
        {
          "internalType": "bool",
          "name": "success",
          "type": "bool"
        }
      ],
      "payable": false,
      "stateMutability": "nonpayable",
      "type": "function"
    },
    {
      "constant": false,
      "inputs": [
        {
          "internalType": "uint256",
          "name": "_eventId",
          "type": "uint256"
        },
        {
          "internalType": "uint256",
          "name": "_candidateId",
          "type": "uint256"
        }
      ],
      "name": "vote",
      "outputs": [],
      "payable": false,
      "stateMutability": "nonpayable",
      "type": "function"
    }
  ],
  "bytecode": "0x608060405234801561001057600080fd5b50336000806101000a81548173ffffffffffffffffffffffffffffffffffffffff021916908373ffffffffffffffffffffffffffffffffffffffff160217905550610b2f806100606000396000f3fe608060405234801561001057600080fd5b506004361061004c5760003560e01c80630b791430146100515780638da5cb5b1461017257806390ceb865146101bc578063b384abef14610462575b600080fd5b61007d6004803603602081101561006757600080fd5b810190808035906020019092919050505061049a565b604051808060200180602001858152602001848152602001838103835287818151815260200191508051906020019080838360005b838110156100cd5780820151818401526020810190506100b2565b50505050905090810190601f1680156100fa5780820380516001836020036101000a031916815260200191505b50838103825286818151815260200191508051906020019080838360005b83811015610133578082015181840152602081019050610118565b50505050905090810190601f1680156101605780820380516001836020036101000a031916815260200191505b50965050505050505060405180910390f35b61017a610607565b604051808273ffffffffffffffffffffffffffffffffffffffff1673ffffffffffffffffffffffffffffffffffffffff16815260200191505060405180910390f35b610448600480360360c08110156101d257600080fd5b81019080803590602001906401000000008111156101ef57600080fd5b82018360208201111561020157600080fd5b8035906020019184600183028401116401000000008311171561022357600080fd5b91908080601f016020809104026020016040519081016040528093929190818152602001838380828437600081840152601f19601f8201169050808301925050505050505091929192908035906020019064010000000081111561028657600080fd5b82018360208201111561029857600080fd5b803590602001918460018302840111640100000000831117156102ba57600080fd5b91908080601f016020809104026020016040519081016040528093929190818152602001838380828437600081840152601f19601f820116905080830192505050505050509192919290803590602001909291908035906020019064010000000081111561032757600080fd5b82018360208201111561033957600080fd5b8035906020019184602083028401116401000000008311171561035b57600080fd5b919080806020026020016040519081016040528093929190818152602001838360200280828437600081840152601f19601f820116905080830192505050505050509192919290803590602001906401000000008111156103bb57600080fd5b8201836020820111156103cd57600080fd5b803590602001918460208302840111640100000000831117156103ef57600080fd5b919080806020026020016040519081016040528093929190818152602001838360200280828437600081840152601f19601f8201169050808301925050505050505091929192908035906020019092919050505061062c565b604051808215151515815260200191505060405180910390f35b6104986004803603604081101561047857600080fd5b81019080803590602001909291908035906020019092919050505061083f565b005b600381815481106104a757fe5b9060005260206000209060040201600091509050806000018054600181600116156101000203166002900480601f0160208091040260200160405190810160405280929190818152602001828054600181600116156101000203166002900480156105535780601f1061052857610100808354040283529160200191610553565b820191906000526020600020905b81548152906001019060200180831161053657829003601f168201915b505050505090806001018054600181600116156101000203166002900480601f0160208091040260200160405190810160405280929190818152602001828054600181600116156101000203166002900480156105f15780601f106105c6576101008083540402835291602001916105f1565b820191906000526020600020905b8154815290600101906020018083116105d457829003601f168201915b5050505050908060020154908060030154905084565b6000809054906101000a900473ffffffffffffffffffffffffffffffffffffffff1681565b60008060009054906101000a900473ffffffffffffffffffffffffffffffffffffffff1673ffffffffffffffffffffffffffffffffffffffff163373ffffffffffffffffffffffffffffffffffffffff16146106d3576040517f08c379a0000000000000000000000000000000000000000000000000000000008152600401808060200182810382526022815260200180610ad96022913960400191505060405180910390fd5b60036040518060800160405280898152602001888152602001878152602001600081525090806001815401808255809150509060018203906000526020600020906004020160009091929091909150600082015181600001908051906020019061073e929190610a33565b50602082015181600101908051906020019061075b929190610a33565b50604082015181600201556060820151816003015550505060008090505b8451811015610830576002600084815260200190815260200160002060405180606001604052808784815181106107ac57fe5b602002602001015181526020018684815181106107c557fe5b602002602001015181526020016000815250908060018154018082558091505090600182039060005260206000209060030201600090919290919091506000820151816000015560208201518160010155604082015181600201555050508080600101915050610779565b50600190509695505050505050565b6040518060600160405280600181526020016000151581526020016000815250600160003373ffffffffffffffffffffffffffffffffffffffff1673ffffffffffffffffffffffffffffffffffffffff1681526020019081526020016000206000820151816000015560208201518160010160006101000a81548160ff021916908315150217905550604082015181600201559050506000600160003373ffffffffffffffffffffffffffffffffffffffff1673ffffffffffffffffffffffffffffffffffffffff16815260200190815260200160002090508060010160009054906101000a900460ff161561099d576040517f08c379a000000000000000000000000000000000000000000000000000000000815260040180806020018281038252600d8152602001807f416c726561647920766f7465640000000000000000000000000000000000000081525060200191505060405180910390fd5b60018160010160006101000a81548160ff0219169083151502179055508181600201819055506001600384815481106109d257fe5b9060005260206000209060040201600301600082825401925050819055506001600260008581526020019081526020016000208381548110610a1057fe5b906000526020600020906003020160020160008282540192505081905550505050565b828054600181600116156101000203166002900490600052602060002090601f016020900481019282601f10610a7457805160ff1916838001178555610aa2565b82800160010185558215610aa2579182015b82811115610aa1578251825591602001919060010190610a86565b5b509050610aaf9190610ab3565b5090565b610ad591905b80821115610ad1576000816000905550600101610ab9565b5090565b9056fe4f6e6c7920746865206f776e65722063616e2063726561746520616e206576656e74a265627a7a72315820bce24a6950b47f6d4a6b3492ffc458b6350f63f8f018afde3c61903f0204aa2e64736f6c63430005110032",
  "source": "pragma solidity ^0.5.0;\n\n// contract for voting in a ballot\ncontract Ballot{\n    address public owner;\n    struct Voter{\n        uint weight;\n        bool voted;\n        uint voteTo;\n    }\n    // struct for a proposal\n    struct Candidate{\n        bytes32 name;\n        uint id;\n        uint voteCount;\n    }\n\n    struct Event{\n        string name;\n        string endTime;\n        uint expectedVotes;\n        uint totalVotes;\n    }\n\n    // mapping of voters\n    mapping(address => Voter) voters;\n\n    // array of proposals\n    mapping(uint => Candidate []) listCandidates;\n\n    constructor() public{\n        owner = msg.sender;\n    }\n\n    Event[] public events;\n\n    // create voting event\n    function createEvent(string memory _name, string memory _endTime, uint _expectedVotes, bytes32[] memory _candidateNames, uint[] memory _candidateIds, uint evenId) public returns(bool success){\n        require(msg.sender == owner, \"Only the owner can create an event\");\n        events.push(Event({\n            name: _name,\n            endTime: _endTime,\n            expectedVotes: _expectedVotes,\n            totalVotes: 0\n        }));\n\n        // create candidates and map them to the event\n        for(uint i = 0; i < _candidateNames.length; i++){\n            listCandidates[evenId].push(Candidate({\n                name: _candidateNames[i],\n                id: _candidateIds[i],\n                voteCount: 0\n            }));\n        }\n\n        return true;\n    }\n\n    // vote for a candidate\n    function vote(uint _eventId, uint _candidateId) public{\n        // create a voter\n        voters[msg.sender] = Voter({\n            weight: 1,\n            voted: false,\n            voteTo: 0\n        }\n        );\n        Voter storage sender = voters[msg.sender];\n        require(!sender.voted, \"Already voted\");\n        sender.voted = true;\n        sender.voteTo = _candidateId;\n        events[_eventId].totalVotes += 1;\n        listCandidates[_eventId][_candidateId].voteCount += 1;\n    }\n}",
  "sourcePath": "/Users/premalbrahmbhatt/Desktop/coc/Trinity-Hackathon/trinity/src/contracts/Ballot.sol",
  "compiler": {
    "name": "solc",
    "version": "0.5.17+commit.d19bba13.Emscripten.clang"
  },
  "schemaVersion": "3.4.12",
  "updatedAt": "2023-03-04T10:12:05.996Z",
  "networkType": "ethereum",
  "devdoc": {
    "methods": {}
  },
  "userdoc": {
    "methods": {}
  }
}